:020000040800F2
:10000000F0080020C9000008EF000008B70700084A
:1000100000000000000000000000000000000000E0
:10002000000000000000000000000000F3000008D5
:100030000000000000000000F5000008B109000801
:10004000F9000008F9000008F9000008F9000008AC
:10005000F9000008F9000008F9000008F90000089C
:1000600000000000F9000008F9000008F90000088D
:10007000F9000008F9000008F9000008F90000087C
:10008000F90000080000000000000000F90000086E
:1000900000000000F9000008F9000008F90000085D
:1000A00000000000F900000800000000F90000084E
:1000B0000448854600F0E4F900F048F8004800479D
:1000C00039270008F00800200C4880F308880C4805
:1000D0000168090E0B4A914205D10B480B4901609A
:1000E0000B480C4901600C4880470C480047FEE76C
:1000F000FEE7FEE7FEE7FEE7FEE70000F00800206F
:10010000040000001F000000181002400100000061
:100110000000014000000000B5090008B10000081F
:1001200030B50B46014600202022012409E00D468F
:10013000D5409D4205D31D469540491B2546954017
:1001400040191546521E002DF1DC30BD70B5054C2E
:10015000054D03E0206800198047241DAC42F9D109
:1001600070BD0000083D00080C3D0008F8B50246CF
:100170004A40D40F42004B0052085B089A4202D218
:100180000246084611464A0023D0C30D4A00DDB29C
:10019000120EAD1A202D35DA49020126490AF6055C
:1001A0008A19002C00D0524220214F1B1146B94021
:1001B0002A411018C20D9A4221D0002C17D0012DCF
:1001C00008DCDA05801AD20F8019D207DBB200F002
:1001D000F5F8F8BDDA05801A012340001B06C018A7
:1001E00080185A428018CA0F1043490007E0490896
:1001F000C2071143DA05801A80194008801800F000
:10020000D5F8F8BD61000122511A001BF7E7012261
:10021000D2075140AAE70122D2075040A6E7024682
:1002200070B54A40D30FDB0740002DD04A002AD0DA
:10023000010E140E000212020919400A520A841813
:10024000E50104465443000A120A2E045043A4193F
:100250004219200CC543AA18120C0125AD03521CEB
:10026000521912047F39240400D0521C104301D4C7
:100270004000491EC2B20C06C0092018401C4008AC
:10028000802A02D003E0002070BD40084000002911
:1002900000DA0020184370BD70B502464A40D50F01
:1002A00040004A00ED0740085208002814D0002AF8
:1002B00012D0C40DD30D41020120C0055202490ADB
:1002C000520AE41A091812187D34914201D3641CB1
:1002D00000E04900002C01DA002070BD00239142AB
:1002E00001D3891A0343400849000028F7D10029A7
:1002F0000AD0914202D10121C90705E0914201D201
:10030000012101E00121C943E005C018401900F0B6
:100310004DF870BD420005D04200120E52428A4292
:1003200001DB00207047C90508187047C217C10FCC
:10033000504010B54018CA079623002100F03EF83F
:1003400010BD10B500229623114600F037F810BDFD
:10035000C20F410040020123400ADB05D207090E0B
:10036000C0187F2901DA00207047962903DC962304
:10037000591AC84001E096398840002AF4D040421A
:10038000704700000122D207002800DB101A002964
:1003900000DB511A814270470122D207002800DB9E
:1003A000101A002900DB511A88427047002904DA2C
:1003B000401C490001D140084000704770B400243F
:1003C000050C05D11024000402D1002921D01124EC
:1003D000050E01D100020834050F01D10001241DD2
:1003E000850F01D18000A41C002801DB4000641CA3
:1003F000002908D020252E1B0D46F540A14000D035
:1004000001212943084301061B1B000ADB1D02D5FD
:10041000002070BC7047DB05181880180029F8DA36
:10042000401C4900F5D170BC40084000704710B531
:100430004100C40F0A0E40020121400AC905E40729
:1004400040187F2A07DA7D2A00DA7D22763A90402A
:100450000146002008E0962A09DC1346763B014657
:10046000994096239A1AD040FFF7A0FF01E0963AF0
:100470009040002C00D0404210BD0020704700008A
:10048000064C0125064E05E0E36807CC2B430C3CE7
:1004900098471034B442F7D3FFF70EFEE83C00084B
:1004A000083D000870B58C180578401C6B075B0F81
:1004B00001D10378401C2A1106D10278401C03E0C8
:1004C00006780E70401C491C5B1EF9D12B0705D421
:1004D0000023521E0DD40B70491CFAE70378401C10
:1004E000CB1A921C03E01D780D70491C5B1C521E38
:1004F000F9D5A142D8D3002070BD836A0B43836233
:10050000426170470029816801D0012200E0022287
:100510001143816070470029C16802D00122114354
:1005200001E049084900C1607047C26802239A434C
:10053000C260C2680A43C26070478268002101231A
:10054000DB071A4382600F231B038268491CD20F0A
:10055000D207994201D0002AF7D18168002901DB36
:10056000006C70470020704730B5C268084B8C683B
:100570001A400B680D792343CC686D032C43234349
:100580000C69496923430B431343C36030BD00002A
:1005900003D2FFFF8168042211438160704700216C
:1005A000016001718160C1600161416170470000BB
:1005B0000122054992050028886801D0104300E017
:1005C00090438860704700000027014000290168BF
:1005D00002D00122114301E0014A1140016070473D
:1005E000FEFF000030B503680C4A0C6A13408A68AD
:1005F0004D6922430C692C4322438C692243CC6908
:1006000022434C6A22438C6A22431A430260CA681E
:1006100042600A6882604968C16030BD0F80FFFF98
:10062000F0B50B2706463F04384600F067F804286B
:100630000FD1084C2069022528432061666120699A
:10064000402108432061384600F058F82169A94349
:100650002161F0BD0020024008490420CA68D20789
:1006600001D001207047CA68D20601D50220704728
:10067000C9684907FBD503207047000000200240ED
:100680000248016980221143016170470020024045
:10069000F8B5064600200B273F0400900D4638466B
:1006A00000F02CF8042815D10B4C206901210843D7
:1006B00020613580384600F021F8042806D1B61CA8
:1006C000290C00963180384600F018F82169490855
:1006D00049002161F8BD0000002002400448016982
:1006E000090603D503494160034941607047000092
:1006F0000020024023016745AB89EFCD00B50346DA
:10070000FFF7AAFF02E0FFF7A7FF5B1E012803D057
:10071000002B00D1052000BD002BF4D1FAE7F0B585
:100720000022032501230C6893401C409C422AD1DF
:100730000C79012C01D0022C12D1876854002E466E
:10074000A640B74387604E79A640846826438660FA
:1007500084889C43848084888B7993401C43848064
:10076000066853002C469C40A64306600E79076835
:100770009E403E430660C668A643C660CC799C4056
:10078000C3681C43C460521C102ACBD3F0BD4B0776
:10079000DB0E9A40C90810B589000818016A0F24B9
:1007A0009C40A1430162016A1143016210BD0185B1
:1007B000704781617047052001F02CFA002901681B
:1007C00002D00122114301E049084900016070474D
:1007D000012292030029416801D0114300E09143B6
:1007E000416070470246926900200A4200D0012011
:1007F0007047000010B5026852085200026002689B
:10080000134B8C681A4024024B6814432343036043
:100810000F230A681B069A430261026801231A43E8
:10082000026000228260C2600B698A691A4382609A
:1008300082680123DB031A438260CA68036813439A
:1008400003604268034B49691A401143416010BD7F
:10085000FFE0CF00FF7FFF07406AC0B270478162B0
:100860007047000070B5049D44688905890D120425
:10087000034E11431943344029432143416070BD65
:10088000009800FC70B5FF2500210446AD05C94362
:10089000FFF740FD06460F4960100C1A214630460E
:1008A000FFF7BDFC2146FFF7BAFC2946FFF7B3FC72
:1008B0002146FFF7B4FC044601463046FFF7AFFC83
:1008C0002146FFF7ACFC2946FFF7A5FC2146FFF7C0
:1008D000A6FC70BDDF59375F044A0029516901D079
:1008E000014300E081435161704700000010024065
:1008F000044A0029D16901D0014300E08143D1615C
:100900007047000000100240044A0029916901D09C
:10091000014300E0814391617047000000100240F4
:1009200004490A6B10239A430A630A6B02430A6361
:100930007047000000100240044A0029116801D0ED
:10094000014300E081431160704700000000014056
:100950000CB5002000900190134911200860134845
:10096000416841604168416041687B22D203914304
:10097000416041680522D2041143416001680122AF
:1009800012061143016001688901FCD5416889089C
:1009900089004160416802221143416041680907B2
:1009A000890F0229FAD10CBD00200240001002403C
:1009B0007047000010B5144801680122114301601E
:1009C0004168124A114041600168114A11400160BA
:1009D0000168012292049143016041683F221204A0
:1009E00091434160C16A09090901C162016BFF229B
:1009F000543291430163416B49084900416300212E
:100A00008160FFF7A5FF10BD001002400CB8FF0881
:100A1000FFFFF6FE0029018802D00122114301E008
:100A2000490849000180704740300029818803D07F
:100A30000122D203114301E04904490C818070472F
:100A400070B5028C520852000284048C8288038B99
:100A50007025AB439B080D889B001D4302239C43DC
:100A60008E894B882643104C3343A04208D00F4C4C
:100A7000A04205D00E4CA04202D00E4CA0420DD197
:100A80000824A343CC891C4304239C438B88234321
:100A9000094C22400C8A14434A8A224382800583EF
:100AA00089684163038470BD002C0140004001400F
:100AB0000044014000480140FFFC000070B5028C7A
:100AC00010239A430284048C8288038B1A4D2B4096
:100AD0000D782D062D0C1D4320239C438B891B056F
:100AE0001E0C4B8826431B051B0C144C3343A042A1
:100AF00002D0134EB04219D1124E32400E8AB604C3
:100B0000360C3243A04211D18024A343CC89240562
:100B1000240C1C4340239C438B881B051B0C234344
:100B2000094C22404C8AA404240C22438280058371
:100B300089688163038470BDFF8C0000002C014034
:100B400000400140FFFB0000FFF7000030B5028CC1
:100B5000124B1A400284058C8288838B104C2340F0
:100B60000C782406240C1C430E4B1D400B7B1B07EA
:100B70001B0C2B438D782D072D0C1D430A4B9842DF
:100B800005D10A4B13400A8A9205120C1A4382803F
:100B9000848389680164058430BD0000FFEF000094
:100BA000FF8C0000FFDF0000002C0140FFBF0000B1
:100BB00010B50288144B984206D00124A407A04225
:100BC00002D0124CA04203D17024A2434C8822438D
:100BD0000F4CA04203D00F4C22400C8922430280CC
:100BE0004A68C2620A880285984208D00A4A90423E
:100BF00005D00A4A904202D0094A904201D1897A2E
:100C000001860121818210BD002C014000040040BA
:100C100000100040FFFC0000004001400044014083
:100C200000480140F3B5044685B04068206000905C
:100C3000A6686660E568A560206920490746E0600F
:100C4000FFF7EDFA04901E492846FFF7E8FA0390F3
:100C50001C493046FFF7E3FA02901B490098FFF762
:100C6000DEFA019019490698FFF7D9FA0199FFF7C2
:100C70007DFA0299FFF77AFA0399FFF777FA049958
:100C8000FFF774FA2061044611492846FFF7C7FAB6
:100C9000054639463046FFF769FA0221FFF73AFB6D
:100CA000064621460098FFF761FA3146FFF75EFAE3
:100CB0002946FFF75BFA07B0F0BD0000D3206DBFF7
:100CC00037840ABF22AE07BE5DA775BCCC59273E4C
:100CD0000000C04000210A468B00491CC250042974
:100CE000FADD70474100080200D004200A0E01D04E
:100CF00001221043090EFF2901D1022108430128D6
:100D000000D105207047FFB581B01C4617460E0084
:100D100007D0019D02E02846B047ED192046641E29
:100D2000F9D2019805B0F0BD10B57F200021C005B3
:100D3000FFF7B2FA10BD10B5FFF718FA10BD10B5E5
:100D400000210846FFF7A8FA10BD10B50720612161
:100D50000007FFF7DFFA10BD5E2110B5C943080791
:100D6000FFF7D8FA10BD02E008C8121F08C1002A18
:100D7000FAD170477047002001E001C1121F002A1C
:100D8000FBD170470149086070470000280200202D
:100D900010B50323142204490448FFF7B4FF0448A4
:100DA0000021016010BD0000D50C000834040020B3
:100DB00014010020F8B5154E4520000637460025E1
:100DC000183FB06002F05AFC0024A0003958801986
:100DD0000F4A01F06AFC641C032CF6DB01F008F9F1
:100DE000FF20F5306D1C8542ECDB45210906B0681B
:100DF000FFF70DFA074D0024B060A00080192946C6
:100E000001F040FC641C032CF7DBF8BD000400205B
:100E10001F856B3F0000FA4370B592B02025032078
:100E20006946069508770024CC77092006A9C006F4
:100E3000FFF775FC01214802FFF766FD0121084616
:100E4000FFF74AFD2A4806902A4807900220099099
:100E500080200B9040000C90089480000E950D901F
:100E60000A94C000244D0F9006A910942846FFF75D
:100E7000B9FB1F4E0221403E3046FFF756FB0121D1
:100E80003046FFF748FB6846FFF789FB01206946BB
:100E90000094087104200590029404943046FFF7F2
:100EA00063FB0121072249043046FFF726FB072296
:100EB00020213046FFF721FB0120FFF779FB304668
:100EC000FFF73BFB01213046FFF71CFB3046FFF7E5
:100ED00061FB01212846FFF779FB08480088FFF7EE
:100EE00030FA0749FFF79BF90249486012B070BD1C
:100EF00040240140C401002008000240BAF7FF1F4F
:100F000062DB963F10B50B49002803D0012808D0BA
:100F1000002010BD0888FFF714FA0749FFF77FF992
:100F200010BD4888FFF70DFA014602484068FFF7F8
:100F3000B3F910BDC40100203FC8B23A70B5FF2517
:100F40000024F53502F0A0FA284600F0DBFC641C12
:100F50000A2CF7DB00F0E6F801480168416070BD3B
:100F600084010020F0B585B001F042F8FFF7E9F9FF
:100F70005C4D0646A96AFFF74AF95B49FFF74FF94E
:100F800000275A4A01970090904268DD5848AE62A7
:100F90003F21C0680906FFF73AF9044640004008BF
:100FA0005449FFF7F9F91DD25249002C204602DDC1
:100FB000FFF72DF901E0FFF7D9F84F49FFF72FF9B7
:100FC00004464E49FFF72BF92968FFF7CFF8E8628E
:100FD0004B49009801F07FFB02464248E96A001D38
:100FE00001F063FB286A002804D04648844214DDDF
:100FF0002F6212E0444884420ED93046E969FFF777
:1010000006F93949FFF70BF901467F20C0058142F7
:1010100003DD0120286200E0EE613C490098FFF703
:10102000FEF83B490390FFF7A1F8064639490098BE
:10103000FFF7F5F831460290FFF72EF97F26F60507
:101040003146FFF7E8F8024626482968303001F0BB
:101050002CFB286A002805D06F62286B6863686AD9
:1010600005B0F0BD2C492046FFF7D9F80446696B5E
:10107000286BFFF7CCF8074601462046FFF7C7F874
:10108000044626490098FFF7CAF82146FFF7C7F83B
:10109000A96BFFF76BF8A86312483F2109063830A7
:1010A00001F0F0FA1E492046FFF7B9F8A96BFFF7E7
:1010B0005DF801903246002101A8EF6300F0B4F919
:1010C0000E490398FFF752F801460298FFF7E4F83B
:1010D0003146FFF7A0F8024602480199243001F09A
:1010E000E4FABAE784010020BD3786356F12833AEF
:1010F0007C030020CDCC4C3DE3380E40CDCC4C3EA3
:101100000000A040CDCCCC3D666666BF00004040EC
:101110000AD7A33C0000C040A69B443B3333A04207
:101120000000A04210B502F0AFF90A480849006873
:10113000FFF775F8084901F0EDFD7F21C905FFF7BC
:101140006AF80649FFF76BF80549086010BD000012
:101150000894253720020020B1DC423E002A2D47AA
:1011600084010020F8B5840013481349183007594A
:1011700009683846FFF753F80F4D064610352846E4
:10118000103001593846FFF742F8294608390968F6
:10119000FFF745F809490968FFF741F83146FEF7BE
:1011A000E5FF28512846103007516019044901F025
:1011B00069FA2859F8BD00001C01002050010020E8
:1011C0000000B44310B500F0A7FB10BD10B500F04F
:1011D000AFFB10BD70B5184C606A002804D0002524
:1011E000012809D0656270BD0120E06002F0A6F917
:1011F000606A401C606270BD172002F084FCC0066B
:1012000008D58F21002002F0A3FC6562E56001F0A3
:10121000A3FC70BD00F0ECFE616B401A07498842E8
:10122000F7D9E12002F04EFC8F21002002F090FC63
:101230006562E56070BD00006800002010270000B6
:1012400070B5002506462C46A00030580146FEF732
:10125000E6FF2946FEF78AFF641CE4B20546032C2C
:10126000F2D3FFF70FFB01467F20C005FFF714F80C
:1012700070BD30B5002207239C1A6418203C855CA1
:10128000E47FA54201D0002030BD521C072AF3DBC9
:10129000012030BDFEB5072002F035FC0007400FED
:1012A0000025072801D0022000E028460126584CDE
:1012B000002859D0606800281DD000F099FE07462C
:1012C0000F21544802F009FC00F0AEFA00284BD080
:1012D000E06A401CE062E069002801D0FFF77AFF75
:1012E0006561A561A068A763E76325616064E06844
:1012F000002837D03BE00F21464802F0EEFB454B7B
:101300001868A42801D0A3282ED1A32802D14248CE
:10131000E66120623E4F187E28373870187F78705B
:10132000188CB870988CF8703C486A4603C80090D6
:10133000019101208100595C1154401C0628F9DB01
:101340000621104602F09CFB3020694608700621F9
:10135000684602F095FBA068395C252002F0F8FB96
:10136000666001E001F0F8FBE068002801D0FFF7BB
:1013700031FF00F03DFE0746A06B391A206A82005B
:101380007D20C000101881420BD96068002808D069
:10139000A763A069002801D1606CA06001F0DCFBAC
:1013A000A661E168A069084319D160690090052829
:1013B00015D26068002812D0A06B7D21381AC900B0
:1013C00088420CD9216AFEF7ABFE01460098401C0A
:1013D000814204D301F0C0FB6069401C6061E06B96
:1013E000381A0F4FB84205D90E482661056045608E
:1013F0008560C56000F0FCFD216C401AB84205D93B
:10140000E06AE562206300F0F3FD2064FEBD0000A9
:1014100068000020AC03002088130000883B00080F
:1014200040420F007C03002070B5044615460E466E
:101430000068FEF7A7FF01D2266070BD294620682C
:10144000FEF7AAFFF9D2256070BD0000F0B5DD48B7
:101450007F27C07BFF0587B0002801D13F273F06CB
:10146000D94D0024D948A6008159A859FEF7CFFECE
:101470003946FEF7D4FED549641C24318851032C2B
:10148000F0DBD34E00243068002827D000F02EFD7A
:10149000002823D0CF49012804D0042815D00328E0
:1014A00018D01BE0B06800280AD001200860B460A2
:1014B00000F084FC00F040FC00F09AFDC64907E013
:1014C00000F0D2FDFFF776FCF2E7BE4A0120107172
:1014D000086003E001200860BA48047101F00AFCCA
:1014E000B8480078002803D0BC48006800282BD0FA
:1014F000B648BB4924300068FEF791FEB949FEF7B3
:101500008EFEB9490968FEF782FEB04FB4490C3F20
:101510003860384630304068FEF781FEB149FEF74A
:101520007EFEB1494968FEF772FE78603846303079
:101530008068AB49FEF773FEAA49FEF770FEAA4920
:101540008968FEF764FEB860002001F025FB0120E9
:1015500001F022FB022001F01FFB9A4800780028CE
:101560001ED0A248006801281AD1296828464900DF
:1015700008D14168490005D18168490002D1E86875
:10158000400000D00120002806D0FFF7EBFC0090BF
:10159000684602F0F9F903E095489649006808604A
:1015A00095480068002803D19449009888423CDAA5
:1015B00087484068002808D000F01AFD84494A682E
:1015C000801A8F4A904200D94C600026F0B2002168
:1015D00001F02AFF761C032EF8DD00277B48BE00B1
:1015E0000C308159A859FEF7CDFE864803D18159A8
:1015F000491C815100E084517449A8590C3188512B
:101600000C318A597D21C9008A4206D941007E4A9F
:101610004908914201DA6D4988517F1C032FDDDBB7
:101620006B480121C460016084E0694C00202060A7
:1016300000F0DEFC606075480068002802D0744845
:10164000C06800905F480078002815D071483F229C
:101650008168009812060446914200DC1146FEF7AC
:101660001BFE6D4900908C4201DA884203DC7F2129
:10167000C905884200DD0091684C009826680590F5
:101680003146FEF7C4FD656807462946FEF7BFFDF3
:10169000A4682146FEF76AFD049031460598FEF7DE
:1016A00065FD06462946FEF7B2FD2146FEF7AFFD71
:1016B000029038462946FEF759FD2146FEF7A7FD60
:1016C000039030462946FEF751FD2146FEF74EFDB8
:1016D000002401AE0190A5007059214601F006FAE0
:1016E000641C7051032CF6DD0020394F0446F8606D
:1016F000A500705901F00AFA0146E0B201F094FE2B
:1017000070590121C907884202D90020705104E0B4
:101710007F21C905884200DD71517159F868FEF7D3
:1017200025FD641CF860032CE2DD0121C943FEF7AE
:10173000F1FDF86023480078002841D02748006870
:1017400000283DD12F4800210C3002F07FF82D48B1
:1017500023490C308068FEF762FD2249FEF75FFDE9
:1017600005462C4C29466068FEF759FD0190012181
:101770002068C90748402946FEF751FD02902946D6
:10178000A068FEF74CFD114F0025174E0C3F03904B
:101790002348AC000159234801512846FFF7E2FCD9
:1017A00001A90959FEF7E2FC3159FEF730FD6D1C25
:1017B0003851012DECDDB1680398FEF728FDB860C3
:1017C00007B0F0BDAC0200207C03002038020020EE
:1017D000000000202400002044000020F000002031
:1017E0000000B44335FA8E3CF40300206C00002066
:1017F0008401002088010020780000206F12833AC5
:1018000040420F0050020020CDCCCC3DF80000201B
:1018100024040020E40000206666663FA004002047
:101820001804002034010020F8B5304C2068A528A9
:1018300059D1002108468200A258401C51180E2898
:10184000F9DBC8B2A16B88424DD12848103001F0B5
:1018500093F9274D28602548183001F08DF968600C
:101860002248283001F088F9A860208C616A80073E
:10187000800D4018FEF75AFD1E49FEF7D0FCE860C7
:10188000217B1D4D0806C00FA871A068C206D20FAB
:10189000EA718206D20F2A728A06D20F4907EA72CB
:1018A000C90FA9720107C90F29706168FA2918D0F8
:1018B000002169708107C90FC007A970C00FE870C7
:1018C00000200E4B0E4C074601261F54225C295C5B
:1018D0008A4200D01E542154401C0E28F5DB012002
:1018E000F8BD0121E5E70020F8BD0000AC030020B1
:1018F0007C030020F7FF7F3AAC0200209C0300200D
:101900008C03002008B5810040180090411E009112
:1019100001D30846FAE708BD10B50D21762000F086
:1019200069FD102801D0002010BD012010BD00006D
:1019300010B589220C21762000F060FD1948FFF7D0
:10194000E1FF7D24E4002046FFF7DCFF082176203C
:1019500000F050FD4006F6D52046FFF7D3FF0821E2
:10196000762000F047FD0006F6D500F007F92821A3
:10197000762000F03FFD8021084004210843024604
:101980000721762000F03AFD04220621762000F09F
:1019900035FD0C220921762000F030FD00F050F8D2
:1019A00010BD000060EA0000F8B5244C606AFEF744
:1019B000BDFCE16A0091FEF732FC0546E069FEF7E6
:1019C000B5FC2946FEF7D2FB0546206B009906467A
:1019D000FEF725FC2946FEF722FC0746A069FEF724
:1019E000A5FC3146FEF71BFC0646A06AFEF79EFCEE
:1019F0000099FEF714FC0546206AFEF797FC29467D
:101A0000FEF7B4FB0099FEF70AFC05466069FEF795
:101A10008DFC2946FEF7AAFB0099FEF700FC05465F
:101A20002069FEF783FC2946FEF7A0FB3146FEF74E
:101A30009DFB3946FEF79AFB6063F8BDEC01002080
:101A4000FEB502220821762000F0D8FC7D25ED00AD
:101A500002E02846FFF756FF0821762000F0CAFC76
:101A60008006F6D503236A461946762000F0BEFCB0
:101A700000980199000409020843029908430002F2
:101A80000012FEF753FC184E3146FEF7C8FB174C08
:101A9000012220630821762000F0B0FC02E02846F5
:101AA000FFF730FF0821762000F0A4FCC006F6D531
:101AB00003236A460021762000F098FC00980199E3
:101AC0000004090208430299084300020012FEF7CD
:101AD0002DFC3146FEF7A3FBE062022208217620AE
:101AE00000F08CFCFEBD000008218436EC010020D3
:101AF0003EB50821762000F07DFC1E4D1E4C81066F
:101B000016D503236A461946762000F06FFC00982C
:101B100001990004090208430299084300020012D7
:101B2000FEF704FC2946FEF77AFB0122206017E04D
:101B3000C00619D503236A460021762000F056FC22
:101B40000098019900040902084302990843000221
:101B50000012FEF7EBFB2946FEF761FB02226060F4
:101B60000821762000F04AFC206820636068E0626B
:101B70003EBD000008218436EC01002000B593B082
:101B800012236A461021762000F030FC009801995B
:101B900000020843000301131D48490881600199B0
:101BA000029A0902114309B2C1600399049A090417
:101BB00012021143059A114309020913016111042C
:101BC000069A12021143079A11430903091341614E
:101BD0000899099A0902114309B281610A990B9A7D
:101BE0000902114309B2C1610C990D9A090211430E
:101BF00009B201620E990F9A0902114309B24162BA
:101C00001099119A0902114309B2816213B000BD03
:101C1000EC01002006460024E0B2002101F004FCA3
:101C2000641C032CF8DD0B4DAF0000240CE0FF20FA
:101C300000F016FD2846FFF765FEFF2000F0FEFCD1
:101C40002846FFF75FFE641CB442F0DB3846FFF71E
:101C500059FEEAE7400D030010B50349FEF786FA86
:101C600000F004F810BD0000DB0FC93F70B504465A
:101C7000134E144D03E03146FEF778FA0446AC42A9
:101C8000F9D8114DAC4204DD3146FEF7C0FA0446E6
:101C9000F8E70120C0070D490D4D8442204605D9C3
:101CA000FEF7BDFA2946FEF761FA04E0FEF7B7FA3F
:101CB0002946FEF7B0FA2146FEF7B1FA70BD0000E2
:101CC000DB0FC940DB0F49C0DB0F49407B81CF3EB2
:101CD00083F9A23FFEB500273D460024681CFEF7AD
:101CE00025FB01900E49A8000E58601CFEF71EFB54
:101CF0000090A10071580198FEF791FA0099FEF743
:101D00008EFA0849FEF78BFA3946FEF72FFA641C63
:101D10000746032CE9DB6D1C032DDEDBFEBD000056
:101D2000780100208D976E3F10B5FFF7D3FF014972
:101D3000086010BD48000020F8B50020012400F024
:101D40008FF81A4DA84230D1FF2000F089F8A84240
:101D50002BD12046022500F08BF815494860096810
:101D6000FEF710FB11D100260024B70028466D1C99
:101D700000F07EF80F49A200C959641C8850032C5A
:101D8000F4DB761C032EEFDB00E00B2528466D1CF0
:101D900000F06EF8084C206028466D1C00F068F8D2
:101DA0006060284600F064F8A060F8BD0100AA1247
:101DB000480000207801002000040020F8B500F061
:101DC0005BF800F03BF800200124184901F06AFE9E
:101DD000174920460225096800F052F80026002421
:101DE000B7001448A100C059415828466D1C00F0A6
:101DF00047F8641C032CF4DB761C032EEFDB0E4C3F
:101E000028466D1C216800F03BF86E1C284661686E
:101E100000F036F83046A16800F032F80349FF20A0
:101E200001F040FE00F018F8F8BD00000100AA1211
:101E300048000020780100200004002010B505486B
:101E4000FEF7EEFB042803D0FEF71AFC012010BDBC
:101E5000002010BD007C000810B5FEF711FC10BD7D
:101E6000024980004018006870470000007C0008AC
:101E700000B5FFF7F5FF00BD10B5FEF72FFC10BD54
:101E800010B501F00FFE10BD30B5164C217881421F
:101E900026D007216218203AD27F6254491E0129B8
:101EA000F8DA207010490F48FFF7E3F97F25002882
:101EB00002D06570032030BD0B490A48C91DFFF7E9
:101EC000D8F9002802D06570042030BD06490548C5
:101ED0000E31FFF7CEF9002802D06570012030BD29
:101EE000002030BD60000020723B000870B537480C
:101EF000374C0068002864D0364B37481A685100C8
:101F0000490881420BDA9D686D006D08854206DA4A
:101F10005D686D006D08854201DA00202FE02F4DCD
:101F2000AA4202D89E68AE4206D95E68760076085C
:101F3000864201DA012022E0294EB24202DC9A6890
:101F4000B24206DD5A6852005208824201DA02208B
:101F500015E05A68AA4208D9814206DA9D686D00E8
:101F60006D08854201DA032009E0B24208DD8142B2
:101F700006DA996849004908814201DA04202060A4
:101F800000F036F806CC083C914200D0E060E268F0
:101F9000801A144A90420FD9002904D1124A904263
:101FA00001D90C2005E0114A904204D97F2903D0C1
:101FB000FF20A06000E0A1606160A068FFF764FFFF
:101FC00070BD7F20A0606060002070BD0000002018
:101FD000500000207C030020CDCC4C3E333333BF77
:101FE0003333333FA086010040420F0020A1070099
:101FF00070B50D48426980690C4C6168884201D215
:10200000091A01E0121A5118606020680D180621A3
:102010002846FEF785F806214143691A2160A16828
:102020000818A06070BD000000E000E0DC010020A6
:102030001CB5232001214004FEF74EFC0120694617
:10204000087100208871C871032048710420092498
:10205000E40600902046FEF762FB082100916946E5
:102060002046FEF75CFB1CBDF0B591B0FFF7C0FF4A
:102070000F9005460B900A9000208100574B0CAA48
:102080005B58401C53500328F7DB8DE00A980A95F3
:10209000281A099001D10120099006236A4643219C
:1020A000682000F0A3F9009801990002401800B2DE
:1020B000FEF73CF90790029803990002401800B21D
:1020C000FEF734F90690049805990002401800B212
:1020D000FEF72CF9424E0890307800F05BFA20466B
:1020E0004049FEF71DF84048814201D9012100E036
:1020F00000213068C207D20F914201D0401C3060ED
:10210000374801780907090F00260160B4000CAFB9
:1021100006A839590059FEF73FF904D23859334916
:10212000FEF724F8385106A839590059FEF72AF964
:1021300004D238592D49FEF76AF83851E0192C4974
:1021400000F0A0FA38592B4940004008FEF70EF87D
:10215000014606AF385940004008FEF71DF906D287
:10216000FFF746FF0B901E48012101600BE0099824
:10217000FEF7E7F8204900F0AEFA02461748395951
:10218000201800F092FA761C032EBFDB7D24E400B9
:10219000FFF72EFF401BA04203D20A20FFF7B2FB3D
:1021A000F6E7FFF725FF05460B982C1A13488442E3
:1021B00005D20F981249281A884200D266E70B9878
:1021C000291A0E48814207D20020044A01468300A2
:1021D000401CD1500328FADB11B0F0BD0C040020E4
:1021E000CC00002024F40000127A0000CDCCCC3DBD
:1021F000000048440000C8420024F44880841E00C7
:10220000C0E1E40010B58AB00220694608710120DF
:102210008871C871032040020924E406009020461A
:10222000FEF77DFA042209212046FEF7B0FA0422C7
:102230000A212046FEF7ABFA01214805FEF758FBBC
:1022400001210846FEF760FB01218805FEF774FBBB
:102250000121C805FEF770FB1020FEF761FB0B485B
:10226000029000200F2104910390AB21084C0590AF
:1022700007900691089002A92046FEF7BBFA0121BB
:102280002046FEF79BFA0AB010BD00001808700047
:1022900000540040F8B517461E460446012200F0DF
:1022A0003BF80920800200906004010C0123F2B287
:1022B0005B061248FEF7D6FA114D0020287018E090
:1022C000002408E0641C600B05D00E490868401C1F
:1022D00008600020F8BD04210848FEF783FA0028B2
:1022E000F0D00648FEF7B8FA29788A00B850491CA1
:1022F00029702878B042E3DB0120F8BD005400408B
:10230000E8010020CC01002008B501236A46FFF750
:10231000C1FF009808BD0000F7B582B01746002441
:102320001C4D1D4E02E0641C600B24D10121C90329
:102330003046FEF757FA0128F5D0012040030090FF
:102340000298FAB24004010C00233046FEF78AFAE4
:1023500002E0641C600B0ED102213046FEF742FA07
:102360000028F6D00398C1B23046FEF778FA08E0AC
:10237000641C600B05D02868401C2860002005B054
:10238000F0BD01213046FEF72DFA0028F0D00120E3
:10239000F5E70000CC0100200054004070B5154660
:1023A00000240222FFF7B8FFE9B20C4D2846FEF7E1
:1023B00056FA07E0641C600B04D009490868401C09
:1023C000086070BD40212846FEF70CFA0028F1D0C5
:1023D00001212846FEF7FCF970BD000000540040C2
:1023E000CC01002010B5FFF70DFF10BD10B5FFF7B1
:1023F00051FF10BD10B5FFF787FF10BD10B5FFF7F7
:10240000CDFF10BDF0B5444C444D87B0216828681D
:10241000FDF7FDFE286061686868FDF7F8FE00249E
:102420000A27FF436860A600A8593946FDF772FFE6
:10243000641CA851032CF6DB39480024006804AF63
:1024400000903848A60080590099FDF7E8FE641C0A
:10245000B851032CF5DB344E049834682146FDF75F
:10246000DEFEB168FDF7D7FE019001990498FDF7F3
:10247000D6FE2146FDF77AFE074601990598FDF73D
:10248000CEFE7168FDF772FE044621460598FDF701
:10249000C6FE0199FDF7BFFEB06021460698FDF724
:1024A000BEFE3946FDF7B7FE3060069A014610467B
:1024B000FDF7B5FE2146FDF759FE70601748FEF79F
:1024C000BFFE1A491A4A4118914222D27F22D205F0
:1024D000014600241046FDF7DFFE0090A700E959F1
:1024E000FDF79DFE641CE851032C01DA0098F5E726
:1024F0000B483F210906006800F0FFF8074600245A
:10250000A000295880193A4600F0CFF8641C032C2B
:10251000F6DB07B0F0BD000000040020E803002057
:1025200040000020F4030020E4000020CCCCCCC00C
:1025300032337300F8B500250D4F01F09FF80024E9
:10254000A6000A21B859C943FDF7E4FE014609482F
:10255000094A301800F0A9F8641C032CF0DB7D2038
:10256000C000FFF7CFF96D1C642DE6DBF8BD00005D
:10257000E8030020E40000209A99593F0EB500229C
:102580006B461A805A8001911A819A726946FEF749
:102590000FFB0EBD70B50646FFF72AFD194C2169E9
:1025A0002061451A3046FDF7CCFE1749FDF737FE8E
:1025B00006460121204689070C3000F063F82846C2
:1025C000FDF7BFFE054630466168FDF720FE29464F
:1025D000FDF725FE0D49FDF722FEE168FDF7C6FD7A
:1025E0000B49E060884205DDFF2000F039F87F20CC
:1025F000C00503E0FF2000F021F80020606000200B
:1026000070BD0000B80000208988883D6F12833AB1
:1026100048E1FA3E70B50D460446FFF7E9FC214655
:10262000FDF77EFD6C432009814203D90F2000F0A5
:1026300017F870BD0F2000F001F870BD70B50446AA
:10264000064DC00703D004212846FEF7B2F8A007C4
:1026500003D508212846FEF7ACF870BD00000048FD
:1026600070B50446064DC00703D004212846FEF786
:102670009EF8A00703D508212846FEF798F870BDFC
:102680000000004870B504460120C0070D464540D3
:102690000E462068FDF780FE00D22660284621689D
:1026A000FDF77AFE00D2256070BD70B505460C4678
:1026B0007F2016461146C005FDF7A9FD2146FDF70E
:1026C000AEFD044631462868FDF7A9FD2146FDF719
:1026D0004DFD286070BD10B5FDF7DEFD7F24E405DB
:1026E0002146FDF798FDA04201DD204610BD0121E5
:1026F000C9078842FAD9002010BD10B5FDF78FFD3B
:102700007F24E4052146FDF786FDA04201DD204639
:1027100010BD0121C9078842FAD9002010BD000070
:10272000024614204143034810B508181146FEF72D
:1027300079FA10BD340400201CB57D20C000FFF7DD
:10274000E1F8FFF775FC01F017F801F083F9CC48C8
:10275000FFF7D8F8FFF746FE00F0ECFD0021084631
:1027600000F062FE0021012000F05EFE0021032047
:1027700000F05AFE0021022000F056FE00F04AFF51
:1027800000F036FF002835D0FEF720FDFEF71AFDD9
:10279000002831D0FEF740FBBA4901208873087148
:1027A00000F07AFEB84D00240020FEF7ABFB29684C
:1027B000FDF7DCFC28607D20C000FFF7A3F8641C57
:1027C000402CF1DB0521C9432868FDF7A3FD2860F3
:1027D000FFF74AFCFEF7B2FB00F05CFEFFF7AAFE33
:1027E000FFF7A2FAFFF7A8FAA8480068002805D06A
:1027F000072023E0042021E009201FE0FFF7F8FB79
:102800006863FFF7F5FBA04C0546606B281AFDF7DF
:1028100098FD2063002802DC7F20C00520639C49CE
:10282000FDF7FDFC9B492063884201DD062005E0A1
:10283000964865630068142802DD0820FFF7EAF96E
:1028400000F01CFFFEF76EFCFEF700FEFFF7DAFD5E
:102850000020FEF757FB8C4CA168FDF7E0FC064614
:102860000120FEF74FFB01468B4F20463A460830C9
:10287000FFF71BFF89483A46016820460C30FFF7F6
:1028800014FF2046864A20302168FFF70EFF3A46A3
:1028900031462046FFF709FF0121C943206AFDF7B1
:1028A00039FD06467F492068FDF7B9FC3146FDF742
:1028B000AEFC0090E4687C48844255DD724F786A33
:1028C0000646FDF733FD7849FDF7A9FC2146FDF7E3
:1028D000A6FC0099FDF74AFC6A49B4007031085122
:1028E0000646F86A002808D0002030398200401CD3
:1028F0008E500C28FADB0020F86262486B491030D9
:102900000059FDF78CFC01905E484030015930467B
:10291000FDF77DFC0199FDF729FC5A4940310E5124
:10292000303908510146FDF77AFC564E0146A03673
:10293000A0195F4AFFF7B9FE786A401C78620C283C
:1029400012DB00207862306800240190A700F05963
:102950000199FDF717FD04D2F05901904A48611C16
:102960008162641C0C2CF1DB474E3069002800D0DA
:102970004D485049FDF7FAFB0746B06AFDF7D6FC13
:10298000494C2146FDF74BFCF168FDF748FC0099E6
:10299000FDF7ECFB3946FDF7F5FC03D346493068FB
:1029A000884201DA012000E000203061B06AFDF7C2
:1029B000BDFC2146FDF733FCF168FDF730FC0099C2
:1029C000FDF7D4FB70603069002801D0082108E0D1
:1029D0003A480068002806D039480068002804D02A
:1029E0000F21384816E00C2113E07069002814D03C
:1029F000F069002802D1FFF7FBFAF061FFF7F8FA5F
:102A0000F169411A2F48814202D900207061F061BA
:102A100008211B48FFF7FEFD27E0B06900281DD004
:102A2000FFF7E6FA0446F069002803D1FF20F461BD
:102A3000FFF704FEF069211A2248814201D8F069AB
:102A400004E0B069401EB0610020F0611E49201A08
:102A500088420AD9FF20FFF703FE06E00948807B81
:102A60000028F7D1FF20FFF7E9FDFEF713FC7D24D6
:102A7000E400FFF7BDFA401BA042FAD3C1E6000014
:102A8000A0860100AC02002010000020CC01002034
:102A9000BD3786350AD7A33C492E7F3F0C00002066
:102AA00029EA7F3F0000A03FCDCCCC3D42F27C3FE5
:102AB00067B17F3F00006040CDCC2C406C0000200F
:102AC0007800002020A10700E093040010B506491B
:102AD0000868002807D000200860091D0871092037
:102AE000C006FDF71CFE10BDD001002070B50346E6
:102AF0008C00044D044A60191946FFF7D6FD285989
:102B000070BD00006C0200203333333F70B50446C3
:102B10007F20C005844201DD044604E00120C00797
:102B2000844200D9002409492046FDF778FB054678
:102B300021460846FDF773FB0549FDF770FB294662
:102B4000FDF714FB0349FDF711FB70BD7593583F6A
:102B50007593183E0AD7A33B10B50649087A401C66
:102B60008007800F88602831095C252000F0F0FF85
:102B700010BD00006800002010B541680078800793
:102B8000800DFF38FF3802380818FDF7CFFB082109
:102B9000C943FDF7BFFB10BDF1B54D4886B00168D4
:102BA00006984C4F4C4E8400002904D038594B49AC
:102BB000FDF735FB38514A480025015945480C308E
:102BC0000059FDF7DFFB03D13059002800DD012556
:102BD000434801210059C90748403E490C31095971
:102BE000FDF7D0FB04D131590120C007814227D81D
:102BF000002D25D137480221183000590090FDF7EB
:102C000089FB34493C310959FDF7B0FA3559294659
:102C1000FDF7ACFA3349FDF702FB33490959FDF7DB
:102C2000FEFA32490968FDF7FAFA3959FDF79EFABA
:102C3000284938513C31009808510846243805513C
:102C400027480C300159E019FFF71CFD26480C38C5
:102C500001593059FDF7E3FA1E4E39590C36FDF78C
:102C600085FA3051049020480C3000590390002818
:102C700026DD06983746C5001837E819019000216F
:102C80004068C943FDF746FB0290194800210059EE
:102C9000C9430090FDF73EFB0299FDF7B8FA03998E
:102CA000FDF7BDFA10491C39C968FDF7B8FA049957
:102CB000FDF7B1FA30510198795941600098785187
:102CC00007480159A019FFF7DDFC305907B0F0BDE6
:102CD00000000020940400202C02002048E17A3FEC
:102CE000903B00087EAA2A3E6001002040000020A0
:102CF000F403002010B5044801680448FDF7CCFA3D
:102D00000349C86010BD00004000002017B7513BC8
:102D100044010020F0B50D4684468BB0002002909F
:102D200001216046C9057F26431A0122F605690084
:102D30005206770089182C46BB427DD2520191423F
:102D40007AD3F849012241185203914275D95101B1
:102D50004118C90C0C0709050A0E1146F24BD205A1
:102D6000D218801A009002987F390818240F069014
:102D70002046FDF7DBFA0321C943FDF7CBFA7F219B
:102D8000C905FDF7F3F9014601900098FDF73FFAF8
:102D9000029001990098FDF7E9F90127FF020890D8
:102DA000C019000B0003014603900198FDF72FFAAC
:102DB0000099FDF7DBF904907F20C0050899FDF725
:102DC0006BFA014601900298FDF729FAC019000B31
:102DD000000300900499FDF722FA049003990098EB
:102DE000FDF71DFA0299FDF716FA0499FDF70FFA9F
:102DF0000199FDF714FA014602900098FDF7B6F923
:102E000001460490FDF70BFAC8490190FDF707FA57
:102E1000C749FDF7ABF90199FDF701FA03900021CD
:102E20000098FDF777FA019003990498FDF7F7F9F8
:102E300000900021029801E028E12AE2FDF76AFAF9
:102E40000099FDF793F9014600900198FDF78EF97E
:102E5000C019000B0003014603900198FDF7D7F954
:102E60000099FDF783F90090B2490398FDF7D7F96F
:102E70000290B1490098FDF7D2F90090AF4903984C
:102E8000FDF7CDF90099FDF771F901460090029820
:102E9000FDF76CF9C019000B000301460190029880
:102EA000FDF7B5F90099FDF761F9A5490890E00033
:102EB00079440A5840180992446806980001FDF7C1
:102EC00035FA049021460898FDF750F90199FDF76D
:102ED0004DF90999FDF74AF90499FDF747F9C01929
:102EE000070B3F0338460499FDF791F90999FDF75F
:102EF0008EF90199FDF78BF92146FDF788F90899BC
:102F0000FDF789F904460120C0022818000B0003D0
:102F1000014603902846FDF77AF900210290084601
:102F2000FDF7ABFA0C210840059038460399FDF7F0
:102F300076F9410005468B204908C00581420ADD2B
:102F40004A00FF2109068A4205D8E90FC90708434C
:102F5000044600201FE002990398FDF707F9214677
:102F6000FDF75DF9044638460299FDF758F9214608
:102F7000FDF7FCF8074601462846FDF7F7F8012162
:102F8000C9024018040B240321462846FDF73FF9E7
:102F90003946FDF7EBF801900C200599FDF76DFA25
:102FA00020460199FDF7E2F8FDF741FA07460511C1
:102FB000FDF7BCF92146FDF72EF90199FDF7D6F88A
:102FC00004466049FDF72BF95F49FDF7CFF821462C
:102FD000FDF725F95D49FDF7C9F82146FDF71FF911
:102FE00001463807840E5A4878440059FDF717F90E
:102FF000584979440959FDF7B9F8574979440959AD
:10300000FDF7B4F829467D31FC2907D22946FDF7A2
:1030100081F93146FDF703F90BB0F0BD2946FF22D7
:10302000BF318032914217D22946FDF773F93146FC
:10303000FDF7F5F804464100FF200006814219D053
:1030400060000BD02046FDF74DFE042801D1FDF7AE
:1030500083FE20460BB0F0BD002D0BDA0220FDF7F9
:1030600091FEFDF779FE40004008F10FC9070843C3
:103070000BB0F0BD0220FDF785FEFDF766FE4000B7
:103080004008F10FC90708430BB0F0BD01229207B9
:10309000914239D3FF21C9057F224118120691427E
:1030A0001AD2400061004008090E7F2909DB9729E8
:1030B00000DB46E69622521A012191404A1E224226
:1030C00006D00120FDF75EFEFDF739FE0BB0F0BD26
:1030D0002142EED0214E34E6410004D001224100CD
:1030E0001206914207D30121C9057F22411A120617
:1030F0009142DED346E01B21FDF70CF91A21C943AA
:1031000002910028CDDB1CE601225206914232D307
:10311000690025D0EA0F3F21D207C905541825467A
:10312000B8E70000001080C0000080C07EE24C3E86
:10313000ABAAAA3E00B038423BAA3842D49AB8BBE8
:10314000F40C0000FC596337C9FF753A1872313D21
:10315000BC0C0000720C0000280C0000000080BFB6
:10316000410097D0FF21420009068A4292D27F2077
:10317000C0050BB0F0BD01221206914202D25110DF
:10318000651A87E7420064495208644E5318B342F7
:1031900010D363005B085918B1420BD37F21C905D6
:1031A000884264D0660062D0FF26F605B24201D89C
:1031B000B34204D92946FDF7BEFD0BB0F0BDB042C5
:1031C00002D1002C49DB61E06200120E7F2A08DB8D
:1031D000972A0CDA96239B1A01229A40531E234207
:1031E00001D0002204E0224201D0012200E00222AC
:1031F0004B4B98420BD1002C04DB012A46D11846D8
:103200000BB0F0BD012A28D1D0070BB0F0BD0028CB
:103210000ED00125ED07A84225D1B4421DD09C4215
:1032200008D0002C15DA002A04D0012A09D001E0C8
:10323000002C12DA0220FDF7A5FDFDF775FD0BB09D
:10324000F0BD0220FDF79EFDFDF76EFD68400BB05E
:10325000F0BD002A01D0012A02D000200BB0F0BD41
:1032600028460BB0F0BD8122D205D04202D10846DB
:103270000BB0F0BD7F2140000906884201D3012137
:1032800000E00021E017401C8142E6D130460BB03F
:10329000F0BD7F21C905FCF7BAFF01210446C943EF
:1032A000FDF738F81F49FCF7B6FF2146FCF7B7FFDA
:1032B0003F210906FCF7AFFF074621460846FCF709
:1032C000AEFF0121C90748403946FCF7A8FF074671
:1032D00015492046FCF7A3FF029014493846FCF735
:1032E0009EFF074612492046FCF799FF3946FCF736
:1032F0003DFF044601460298FCF738FF0121C90250
:103300004018070B3F0339460298FCF780FF21461F
:10331000FCF72CFFF6E50000FFFF7F80FFFF3F007A
:10332000000080FFABAAAA3E00B0B8413BAAB8415A
:10333000D49A38BBFEB5022569460D710320487149
:1033400000248C71CC7101212846FDF7D1FA314F50
:1033500031483946FFF712F901210E023046FDF7D8
:10336000C7FA39462D4F3846FFF708F92C48602137
:10337000018001214180848106828460102009241B
:10338000E406009069462046FDF7C9F9042211467B
:103390002046FDF7FCF922493846FDF751FB402055
:1033A000009069462046FDF7BAF901220621204621
:1033B000FDF7EDF91A491848FDF742FB802000900F
:1033C00069462046FDF7ABF9012207212046FDF7AB
:1033D000DEF913491048FDF771FB124C694620468F
:1033E0000095FDF79CF9012211462046FDF7CFF923
:1033F0000B490948FDF7AAFB01210748FDF70AFB25
:1034000001210548FDF710FB01213846FDF702FBBD
:10341000FEBD0000CF070000000400400020004077
:10342000DC0400200004004810B50A460446124996
:103430001046FCF7F4FEFCF78BFF002801DA0020B1
:1034400003E00E49884200DD0846002C09D0012C1B
:103450000CD00B49022C0CD0032C01D180B2886314
:1034600010BD074980B24031086010BD80B20549E7
:1034700000E080B2486310BD00E0F944CF070000CF
:10348000000400400020004010B5FEF731FBFEF7BD
:103490008BFA10BD7047000010B5264801218173DA
:1034A0000022C27301710221234800F0E9FA64206E
:1034B000FEF728FA20480621483000F0E1FA002102
:1034C000012000F045FB0121022000F041FB3921E1
:1034D000062000F03DFB0F21112000F039FB0021F8
:1034E000042000F035FB0321084600F031FBE22008
:1034F00000F0E8FA0021052000F02AFB38211D2009
:1035000000F026FB00F032F9FD2000F073F90020F6
:1035100000F070F900F024F98F21002000F018FB72
:103520000F2000F0F0FAC62802D00320FEF772FB4D
:1035300010BD0000AC0200206800002070B590B003
:1035400000206C4681006050401C0F28FADB85206B
:1035500000902248224D06682248019629460068BC
:10356000FCF75DFEFCF7F4FE0104C0B2090E049006
:1035700003911D4829460068FCF751FEFCF7E8FE60
:103580000104090EC0B2194D05910690286BC10FB8
:1035900008184010FF2800DDFF200790002E03D000
:1035A0000398082108430390002108468200A2588E
:1035B000401C51180E28F9DBE1200E9100F082FA30
:1035C0008221002000F0C4FA0F21684600F0ACFA16
:1035D000FEF70EFD686310B070BD000020000020F3
:1035E0000000C842100000201400002068000020E5
:1035F00010B575216820FEF7FDFE682807D09828D1
:1036000005D07D2803D0722801D0002010BD0120F4
:1036100010BD000010B580226B216820FEF7EEFE81
:103620001548FEF76FF901226B216820FEF7E6FED0
:1036300075216820FEF7DEFE682801D0012400E035
:1036400000246420FEF75EF918221C216820FEF792
:10365000D5FE002C04D005221D216820FEF7CEFEE9
:1036600018221B216820FEF7C9FE03221A216820B8
:10367000FEF7C4FE10BD0000409C0000F0B593B002
:103680000E236A463B216820FEF7B0FE029803999C
:103690000002401800B2FCF749FE2E4C2060009852
:1036A00001990002401800B24042FCF73FFE606002
:1036B000049805990002401800B2FCF737FEA0609C
:1036C000089809990002401800B2FCF72FFE1190EB
:1036D0000A980B990002401800B2FCF727FE1090E0
:1036E0000C980D990002401800B2FCF71FFE1290D2
:1036F000243421681098FCF78AFD109061681198B5
:10370000FCF785FD1190A1681298FCF780FD1290DE
:103710000120109AC0071199424010911146414072
:10372000119112990B4F4140002410AE0C371291A9
:10373000A50070590849FCF772FD0849FCF76FFDB8
:1037400070512146FEF7ECFF641C7851032CEFDB2F
:1037500013B0F0BDE803002000007A3D35FA8E3C3E
:103760000149012088617047001400480149012087
:103770000881704720140048FEB501246846047192
:1037800000258571C4710326467102200B4F0090FD
:1037900069463846FCF7C3FF694638460094FCF793
:1037A000BEFF0748046005718571C471467101460A
:1037B0000920C006FCF7B3FFBC61FEBD0014004841
:1037C000D401002070B4002007210223074C0925F2
:1037D000074EED06A3614200288A3381C007C00F5F
:1037E0001043491EF6D570BC704700000014004815
:1037F00020140048F8B504460F4809260168F6066B
:103800000125002906D105600C48057101463046A6
:10381000FCF785FF07210A4B0A4F022022460A4186
:10382000D20701D0B56100E01D81B861064A108160
:10383000491EF3D5F8BD0000D0010020D4010020BE
:10384000200000480014004820140048F8B5474DF7
:10385000044601682868FCF795FD04D16168686832
:10386000FCF790FD55D0206828606068404E686085
:1038700031466068FCF7D3FC3E4F3946FCF7CFFC7D
:10388000054631462068FCF7CAFC3946FCF7C7FC00
:103890000646FEF7EBF9354C083420602846FEF763
:1038A000E5F960602846FEF7D7F905463046FEF791
:1038B000D3F92946FCF7B3FC0646A06060680146D0
:1038C000FCF7ADFC054620680146FCF7A8FC29463C
:1038D000FCF74CFC2849054688420FDD3146084676
:1038E000FCF79DFC7F21C905FCF795FC01462846A5
:1038F000FCF7D2FCFCF7C6FF054600E01F4D206830
:103900002946FCF78CFC206029466068FCF787FCA0
:103910006060164C1A4E0834A068009070680099D8
:10392000FCF77DFCB768054661683846FCF777FC14
:103930002946FCF76CFC134D686030680099FCF771
:103940006EFC064638462168FCF769FC3146FCF7F8
:103950005EFC7F24E405286021462846FEF792FE9F
:103960002146281DFEF78EFEF8BD0000D000002085
:1039700000008C4235FA8E3C6F12833AF4FD343FDE
:10398000E400002018040020F8B50546006800286F
:1039900048DD2548254C8768A0693946FCF737FC87
:1039A000014600902046224A0830FEF77EFE21485C
:1039B000214E0068002805D020463246394618308E
:1039C000FEF773FE1D49A069884202D81C4988424F
:1039D00000DDA161A1680098FCF719FC194909688C
:1039E000FCF71DFC1849FCF71AFCE168FCF713FC16
:1039F0000146E0600D4832461030FEF756FE216960
:103A0000E068FCF704FC6061084810491430FEF7D8
:103A100039FE0F496069FCF702FC2968FCF7A6FB38
:103A20002860F8BD0020FBE7E400002084010020AE
:103A3000B0FE7F3F00000020EE7C7F3FCDCCCCBDB0
:103A4000CDCCCC3D4000002000007A440100F04184
:103A50000AD7233C10B50848064941610749CA699D
:103A600003231202120A44042243CA610021816125
:103A7000036110BD7F8D5B0000E000E004ED00E01D
:103A800070B50D460646FFF771FE002404E0305D78
:103A9000FFF7B0FE641CE4B2AC42F8D3FFF760FE5F
:103AA00070BD0000064A10B580008018FCF7F0FDDC
:103AB000042804D0FCF7E4FD0520FEF7ABF810BDA8
:103AC000007C000810B50446FFF750FE2046FFF7C3
:103AD00091FEFFF745FE002010BD70B50D4606466D
:103AE0000024FFF743FE6120FFF784FEFEF7EEFFA0
:103AF00004E0FFF767FEA1007050641CAC42F8DBE5
:103B0000FFF72EFE70BD10B5C406E40EFFF72EFEC3
:103B10002046FFF76FFEFEF7D9FFFFF753FE04467E
:103B2000FFF71EFE204610BD70B50D460646002468
:103B3000FFF71CFEA020FFF75DFE04E0A000305858
:103B4000FFF758FE641CAC42F8DBFFF709FE70BDBE
:103B500070B58406A40E20200D460443FFF706FE30
:103B60002046FFF747FE2846FFF744FEFFF7F8FD23
:103B700070BD0C0100010003000C020002000300F4
:103B80000C030003000300002A00000000000000F6
:103B9000CDCC4C3FCDCC4C3F0000003FCDCC4C3F7A
:103BA000CDCC4C3F0000003F0000000000000000B2
:103BB0000000B33FB2BE7D3A00002E40DFCF513847
:103BC00000007E40BF51FABA00E0A44019DAC3BA3F
:103BD00000E0C840C2ED8AB90040EB40CD1F2CBACE
:103BE000001006412AFFFABA00C01541DFCFD137D5
:103BF00000D024419A97703A0050334189478E365D
:103C000000404141E75B9D3800B04E41C00A98B981
:103C100000A05B41558F943A00306841DA92C0BAF7
:103C20000040744162B3C63A0000803F00A0853F67
:103C300000908B3F00C0913F0030983F00F09E3FC6
:103C400000F0A53F0050AD3F0000B53F0000BD3F74
:103C50000060C53F0020CE3F0040D73F00C0E03F9E
:103C600000C0EA3F0020F53F000000007D36AC397F
:103C70007D3C3839EBDCF438320A7E39124C263977
:103C80009B6AED39A4EE83397F661E39F6398A398D
:103C90002B426539A48211395B991F39C3EECD39A6
:103CA000DDE7C637A5A22F390000803FC3AA853FB4
:103CB000C2958B3FD3C3913FF037983F32F59E3F7B
:103CC000D7FEA53F3F58AD3FF304B53FA408BD3F25
:103CD0002A67C53F8C24CE3FFD44D73FDFCCE03F71
:103CE000C7C0EA3F7D25F53F0C3D000800000020DD
:103CF0002C020000A4040008743D00082C020020DF
:103D0000C4060000760D000889D0FFFF32012904A7
:103D1000C1256666864043803F09141C61C91C03A7
:103D20001C20C1EA3949F10326B80B021F2AA00959
:103D30007B14524185EB414149C809100C01247A9A
:103D4000E0EC01241354013A20CC2C1E053E04382B
:103D5000089A99193F0AD7A30428099A99993ECD40
:103D6000CC0C3F04692C1A60045A6C34011C028785
:043D7000010000004E
:04000005080000C926
:00000001FF
