:020000040800F2
:1000000010090020C9000008EF0000086F07000871
:1000100000000000000000000000000000000000E0
:10002000000000000000000000000000F3000008D5
:100030000000000000000000F5000008590800085A
:10004000F9000008F9000008F9000008F9000008AC
:10005000F9000008F9000008F9000008F90000089C
:1000600000000000F9000008F9000008F90000088D
:10007000F9000008F9000008F9000008F90000087C
:10008000F90000080000000000000000F90000086E
:1000900000000000F9000008F9000008F90000085D
:1000A00000000000F900000800000000F90000084E
:1000B0000448854600F0D0F900F048F800480047B1
:1000C000391E0008100900200C4880F308880C48ED
:1000D0000168090E0B4A914205D10B480B4901609A
:1000E0000B480C4901600C4880470C480047FEE76C
:1000F000FEE7FEE7FEE7FEE7FEE70000100900204E
:10010000040000001F000000181002400100000061
:1001100000000140000000005D080008B100000878
:1001200030B50B46014600202022012409E00D468F
:10013000D5409D4205D31D469540491B2546954017
:1001400040191546521E002DF1DC30BD70B5054C2E
:10015000054D03E0206800198047241DAC42F9D109
:1001600070BD0000402E0008442E0008F8B502467D
:100170004A40D40F42004B0052085B089A4202D218
:100180000246084611464A0023D0C30D4A00DDB29C
:10019000120EAD1A202D35DA49020126490AF6055C
:1001A0008A19002C00D0524220214F1B1146B94021
:1001B0002A411018C20D9A4221D0002C17D0012DCF
:1001C00008DCDA05801AD20F8019D207DBB200F002
:1001D00009F9F8BDDA05801A012340001B06C01892
:1001E00080185A428018CA0F1043490007E0490896
:1001F000C2071143DA05801A80194008801800F000
:10020000E9F8F8BD61000122511A001BF7E701224D
:10021000D2075140AAE70122D2075040A6E7024682
:1002200070B54A40D30FDB0740002DD04A002AD0DA
:10023000010E140E000212020919400A520A841813
:10024000E50104465443000A120A2E045043A4193F
:100250004219200CC543AA18120C0125AD03521CEB
:10026000521912047F39240400D0521C104301D4C7
:100270004000491EC2B20C06C0092018401C4008AC
:10028000802A02D003E0002070BD40084000002911
:1002900000DA0020184370BD70B502464A40D50F01
:1002A00040004A00ED0740085208002814D0002AF8
:1002B00012D0C40DD30D41020120C0055202490ADB
:1002C000520AE41A091812187D34914201D3641CB1
:1002D00000E04900002C01DA002070BD00239142AB
:1002E00001D3891A0343400849000028F7D10029A7
:1002F0000AD0914202D10121C90705E0914201D201
:10030000012101E00121C943E005C018401900F0B6
:1003100061F870BD420005D04200120E52428A427E
:1003200001DB00207047C90508187047C217C10FCC
:10033000504010B54018CA079623002100F052F82B
:1003400010BD10B500229623114600F04BF810BDE9
:10035000C20F410040020123400ADB05D207090E0B
:10036000C0187F2901DA00207047962903DC962304
:10037000591AC84001E096398840002AF4D040421A
:100380007047410040020122400AD205090E801840
:100390007F2901DA00207047962903DC9622511A42
:1003A000C840704796398840704700000122D20744
:1003B000002800DB101A002900DB511A8142704727
:1003C0000122D207002800DB101A002900DB511A95
:1003D00088427047002904DA401C490001D14008D6
:1003E0004000704770B40024050C05D110240004AF
:1003F00002D1002921D01124050E01D100020834B8
:10040000050F01D10001241D850F01D18000A41C1E
:10041000002801DB4000641C002908D020252E1B89
:100420000D46F540A14000D00121294308430106B3
:100430001B1B000ADB1D02D5002070BC7047DB05CA
:10044000181880180029F8DA401C4900F5D170BC52
:100450004008400070470000064C0125064E05E0AC
:10046000E36807CC2B430C3C98471034B442F7D3D5
:10047000FFF722FE202E0008402E000870B58C18D1
:100480000578401C6B075B0F01D10378401C2A11D3
:1004900006D10278401C03E006780E70401C491C0F
:1004A0005B1EF9D12B0705D40023521E0DD40B700F
:1004B000491CFAE70378401CCB1A921C03E01D7814
:1004C0000D70491C5B1C521EF9D5A142D8D30020E7
:1004D00070BD836A0B438362426170470029816863
:1004E00001D0012200E002221143816070470029FF
:1004F000C16802D00122114301E049084900C160EE
:100500007047C26802239A43C260C2680A43C2604D
:100510007047826800210123DB071A4382600F23A2
:100520001B038268491CD20FD207994201D0002ACE
:10053000F7D18168002901DB006C7047002070470B
:1005400030B5C268084B8C681A400B680D7923439C
:10055000CC686D032C4323430C69496923430B4347
:100560001343C36030BD000003D2FFFF8168042243
:100570001143816070470021016001718160C16099
:100580000161416170470000012205499205002880
:10059000886801D0104300E09043886070470000F5
:1005A000002701400029016802D00122114301E027
:1005B000014A114001607047FEFF000030B503683A
:1005C0000C4A0C6A13408A684D6922430C692C431B
:1005D00022438C692243CC6922434C6A22438C6AB1
:1005E00022431A430260CA6842600A68826049680E
:1005F000C16030BD0F80FFFFF0B50B2706463F04FA
:10060000384600F067F804280FD1084C206902250D
:1006100028432061666120694021084320613846F3
:1006200000F058F82169A9432161F0BD0020024083
:1006300008490420CA68D20701D001207047CA685F
:10064000D20601D502207047C9684907FBD50320AF
:1006500070470000002002400248016980221143D7
:100660000161704700200240F8B5064600200B27C4
:100670003F0400900D46384600F02CF8042815D1B0
:100680000B4C20690121084320613580384600F079
:1006900021F8042806D1B61C290C00963180384672
:1006A00000F018F82169490849002161F8BD0000EF
:1006B0000020024004480169090603D5034941604E
:1006C0000349416070470000002002402301674554
:1006D000AB89EFCD00B50346FFF7AAFF02E0FFF7B5
:1006E000A7FF5B1E012803D0002B00D1052000BD11
:1006F000002BF4D1FAE7F0B50022032501230C68A2
:1007000093401C409C422AD10C79012C01D0022C30
:1007100012D1876854002E46A640B74387604E79B1
:10072000A64084682643866084889C4384808488AD
:100730008B7993401C438480066853002C469C4070
:10074000A64306600E7907689E403E430660C66871
:10075000A643C660CC799C40C3681C43C460521C4D
:10076000102ACBD3F0BD0185704781617047052009
:1007700000F036FE70B5FF2500210446AD05C943E3
:10078000FFF7C8FD06460F4960100C1A2146304697
:10079000FFF745FD2146FFF742FD2946FFF73BFDE8
:1007A0002146FFF73CFD044601463046FFF737FD82
:1007B0002146FFF734FD2946FFF72DFD2146FFF7BF
:1007C0002EFD70BDDF59375F044A0029516901D001
:1007D000014300E081435161704700000010024076
:1007E000044A0029916901D0014300E081439161ED
:1007F00070470000001002400CB5002000900190EE
:100800001349112008601348416841604168416004
:1008100041687B22D2039143416041680522D204A2
:100820001143416001680122120611430160016811
:100830008901FCD54168890889004160416802222C
:100840001143416041680907890F0229FAD10CBDA3
:1008500000200240001002407047000010B514480C
:1008600001680122114301604168124A1140416050
:100870000168114A1140016001680122920491430C
:10088000016041683F22120491434160C16A090935
:100890000901C162016BFF22543291430163416B34
:1008A00049084900416300218160FFF7A5FF10BDA1
:1008B000001002400CB8FF08FFFFF6FE70B50D48AF
:1008C0000B4900680546FFF7AAFC0B49FFF74EFCF1
:1008D00004460A492846FFF7A2FC2146FFF7DCFC44
:1008E0007F21C905FFF797FC0549086070BD00002E
:1008F000000040403C0000200AD7233C0000C040DC
:1009000014010020002101607047FFB581B01C4632
:1009100017460E0007D0019D02E02846B047ED19AA
:100920002046641EF9D2019805B0F0BD02E008C867
:10093000121F08C1002AFAD170477047002001E059
:1009400001C1121F002AFBD17047000010B503231C
:10095000042204490448FFF7D8FF0448002101603D
:1009600010BD000005090008BC030020180100208C
:1009700070B5174D064668680024002801D101F0C3
:10098000CBFE2868002801D101F044FF0722012393
:1009900001F09AFE00F01EF8002803D0184690409F
:1009A0002043C4B201F0ACFE521EF1D5002E02D09D
:1009B00001F0B2FE01E001F0C1FE01F085FE01F0A0
:1009C0009FFE6868002801D001F0B8FE204670BD87
:1009D000AC0100200920C006008A012189020840DC
:1009E0007047000010B505484068002801D101F0AB
:1009F00093FE01F069FE01F0A1FE10BDAC010020E4
:100A000070B5104E0546B068012801D101F078FE9E
:100A1000072428462041C00702D001F07DFE01E0F6
:100A200001F08CFE01F05CFE641EF2D570680028B7
:100A300001D101F071FE01F047FE01F061FE384680
:100A400070BD0000AC01002010B5074A9068002876
:100A500001D101F039FE5068012803D1FFF7BAFF38
:100A600001F06CFE10BD0000AC01002010B5084C78
:100A70006068012804D1A068002806D101F05EFE5C
:100A8000A068002801D101F01FFE01F045FE10BD55
:100A9000AC010020F8B5154E45200006374600256C
:100AA000183FB06001F000FF0024A0003958801901
:100AB0000F4A01F070F9641C032CF6DB00F0FAFE1B
:100AC000FF20F5306D1C8542ECDB45210906B0683E
:100AD000FFF79DFB074D0024B060A0008019294658
:100AE00001F046F9641C032CF7DBF8BD88030020F5
:100AF0001F856B3F0000FA4370B592B0202503209C
:100B00006946069508770024CC77092006A9C00617
:100B1000FFF7F1FD01214802FFF762FE01210846BF
:100B2000FFF752FE2A4806902A48079002200990B3
:100B300080200B9040000C90089480000E950D9042
:100B40000A94C000244D0F9006A910942846FFF780
:100B500035FD1F4E0221403E3046FFF7D2FC0121F9
:100B60003046FFF7C4FC6846FFF705FD01206946E3
:100B70000094087104200590029404943046FFF715
:100B8000DFFC0121072249043046FFF7A2FC0722BF
:100B900020213046FFF79DFC0120FFF7F5FC304691
:100BA000FFF7B7FC01213046FFF798FC3046FFF70E
:100BB000DDFC01212846FFF7F5FC08480088FFF717
:100BC000C0FB0749FFF72BFB0249486012B070BD1C
:100BD000402401409401002008000240BAF7FF1FA2
:100BE00062DB963F10B50B49002803D0012808D0DE
:100BF000002010BD0888FFF7A4FB0749FFF70FFB93
:100C000010BD4888FFF79DFB014602484068FFF78A
:100C100043FB10BD940100203FC8B23AF8B58400F0
:100C2000134813491830075909683846FFF7F7FA8F
:100C30000F4D064610352846103001593846FFF74B
:100C4000E6FA294608390968FFF7E9FA0949096807
:100C5000FFF7E5FA3146FFF789FA285128461030A8
:100C600007516019044901F083F82859F8BD0000C4
:100C700020010020600100200000B44370B5184C32
:100C8000606A002804D00025012809D0656270BD83
:100C90000120E06001F064FD606A401C606270BD8C
:100CA000172002F05EF8C00608D58F21002002F060
:100CB0007DF86562E56001F031FB70BD00F0FAFD82
:100CC000616B401A07498842F7D9E12002F028F801
:100CD0008F21002002F06AF86562E56070BD0000B7
:100CE000680000201027000030B50E4B00200C4C8F
:100CF0000C4A022120338500655DED0701D091612A
:100D000001E000BF198100BF00BF00BF00BF00BFEE
:100D100000BF00BF00BF401CC0B23028EBD330BDC5
:100D20004C0400200004004830B5092200200C4C7F
:100D3000D2060C4B10218500655DAD0701D5916190
:100D400001E000BF198100BF00BF00BF00BF00BFAE
:100D500000BF00BF00BF401CC0B23028EBD330BD85
:100D60004C0400202000004830B5092200200C4C23
:100D7000D2060C4B40218500655D6D0701D5916160
:100D800001E000BF198100BF00BF00BF00BF00BF6E
:100D900000BF00BF00BF401CC0B23028EBD330BD45
:100DA0004C0400202000004830B5092200200C4CE3
:100DB000D2060C4B80218500655D2D0701D5916120
:100DC00001E000BF198100BF00BF00BF00BF00BF2E
:100DD00000BF00BF00BF401CC0B23028EBD330BD05
:100DE0004C0400202000004870B5002506462C4623
:100DF000A00030580146FFF712FA2946FFF7B6F96E
:100E0000641CE4B20546032CF2D3FFF7B3FC0146A1
:100E10007F20C005FFF740FA70BD0000F8B5164FFF
:100E20000C227968134E5143144A8A1839688C0091
:100E30001159002802D0124E491C00E0491E1151E0
:100E4000BD6831462859FFF7EAF928513C68002C63
:100E500004D131466868FFF7E2F9686078680C21D0
:100E6000484306494018A1004058002800DA404293
:100E7000F8BD00002EBA683F48010020C8030020DA
:100E8000CDCC8C3F30B5002207239C1A6418203C3F
:100E9000855CE47FA54201D0002030BD521C072AAA
:100EA000F3DB012030BD0000FEB5072001F059FF43
:100EB0000007400F0025072801D0022000E0284647
:100EC0000126584C002859D0606800281DD000F039
:100ED000F1FC07460F21544801F02DFF00F002FA03
:100EE00000284BD0E06A401CE062E069002801D095
:100EF000FFF7C4FE6561A561A068A763E76325618C
:100F00006064E068002837D03BE00F21464801F0DC
:100F100012FF454B1868A42801D0A3282ED1A3287E
:100F200002D14248E66120623E4F187E2837387071
:100F3000187F7870188CB870988CF8703C486A46A6
:100F400003C80090019101208100595C1154401C9C
:100F50000628F9DB0621104601F0C0FE3020694664
:100F600008700621684601F0B9FEA068395C2520AA
:100F700001F01CFF666001E001F0D0F9E068002894
:100F800001D0FFF77BFE00F095FC0746A06B391AF5
:100F9000206A82007D20C000101881420BD9606851
:100FA000002808D0A763A069002801D1606CA06068
:100FB00001F0B4F9A661E168A069084319D160693C
:100FC0000090052815D26068002812D0A06B7D2102
:100FD000381AC90088420CD9216AFFF7A1F80146E6
:100FE0000098401C814204D301F098F96069401CCC
:100FF0006061E06B381A0F4FB84205D90E48266180
:10100000056045608560C56000F054FC216C401AA5
:10101000B84205D9E06AE562206300F04BFC206429
:10102000FEBD00006800002034030020881300008B
:10103000002E000840420F0004030020F0B57F207E
:1010400087B0C005009094484078002802D13F2026
:1010500000060090914F924E0024A500705900990F
:10106000FFF7DDF8641C7851032CF6DB01F024FA5D
:1010700089480078002803D08A480068002823D0D7
:1010800089493868FFF7CBF88849FFF7C8F8884CDA
:101090002168FFF7BCF8814D83490C3D28607868D2
:1010A000FFF7BDF88149FFF7BAF86168FFF7AFF8BD
:1010B00068607D49B868FFF7B2F87C49FFF7AFF880
:1010C000A168FFF7A4F8A860002001F047F901200B
:1010D00001F044F9022001F041F97649F0688842B4
:1010E00001DA002405E0FFF792F87349FFF797F85B
:1010F0000446724800260068714D002802D17148EC
:10110000844216DA6868002807D000F0D3FB6968CB
:10111000401A6D49884200D96E600024E0B2002177
:1011200001F00AFA641C032CF8DD0120AE6028608F
:101130006CE0634D0020286000F0BCFB68606348F1
:101140000068002801D06248C468624D2868049095
:1011500001462046FFF75BF805906E683146FFF7C1
:1011600056F8AD682946FFF701F803902046049928
:10117000FEF7FCFF04463146FFF749F82946FFF722
:1011800046F8019031460598FEF7F0FF2946FFF733
:101190003EF8029020463146FEF7E8FF2946FEF76A
:1011A000E5FF00246E460090A5007059214601F02D
:1011B00055F8641C7051032CF6DD002040490446AC
:1011C0008860A500705901F059F80146E0B201F0BD
:1011D000B3F970590121C907884202D90020705122
:1011E00004E07F21C905884200DD71517159344DF9
:1011F000A868FEF7BBFF641CA860032CE1DD012199
:101200002C46C943A068FFF785F8A0602248007803
:1012100000283ED02348006800283AD100211F480A
:1012200001F0A8FC2049B868FEF7F9FF1F49FEF756
:10123000F6FF0546284C29466068FEF7F0FF00904F
:1012400001212068C90748402946FEF7E8FF0190C0
:101250002946A068FEF7E3FF104F0025144E0C3F0F
:1012600002901E48AC0001591D4801512846FFF765
:10127000D5FC69460959FEF779FF3159FEF7C7FFDA
:101280006D1C3851012DECDDB1680298FEF7BFFFEF
:10129000B86007B0F0BD000034020020E401002077
:1012A00004030020F00000200000B44335FA8E3C17
:1012B0007C030020CDCCCC3DE4388E3F780000206C
:1012C000000000206F12833A40420F00F800002017
:1012D000AC030020F8030020E4000020A00300205D
:1012E00038010020F8B5304C2068A52859D10021DC
:1012F00008468200A258401C51180E28F9DBC8B2DB
:10130000A16B88424DD12848103001F017F8274DC5
:1013100028602548183001F011F86860224828300C
:1013200001F00CF8A860208C616A8007800D4018DD
:10133000FEF7FCFF1E49FEF772FFE860217B1D4DA2
:101340000806C00FA871A068C206D20FEA71820613
:10135000D20F2A728A06D20F4907EA72C90FA97200
:101360000107C90F29706168FA2918D00021697036
:101370008107C90FC007A970C00FE87000200E4B8D
:101380000E4C074601261F54225C295C8A4200D07D
:101390001E542154401C0E28F5DB0120F8BD01210C
:1013A000E5E70020F8BD000034030020040300201E
:1013B000F7FF7F3A340200202403002014030020AA
:1013C00010B50020FFF72AFD10BD08B581004018B8
:1013D0000090411E009101D30846FAE708BD0000C5
:1013E00006460024E0B2002101F0A6F8641C032C9C
:1013F000F8DD0B4DAF0000240CE0FF2000F0A6FC50
:101400002846FFF7E2FFFF2000F08EFC2846FFF79A
:10141000DCFF641CB442F0DB3846FFF7D6FFEAE796
:10142000400D030010B50349FEF7A0FE00F004F8DC
:1014300010BD0000DB0FC93F70B50446134E144DBC
:1014400003E03146FEF792FE0446AC42F9D8114D56
:10145000AC4204DD3146FEF7DAFE0446F8E701202F
:10146000C0070D490D4D8442204605D9FEF7D7FE31
:101470002946FEF77BFE04E0FEF7D1FE2946FEF783
:10148000CAFE2146FEF7CBFE70BD0000DB0FC9404F
:10149000DB0F49C0DB0F49407B81CF3E83F9A23F80
:1014A000FEB500273D460024681CFEF73FFF019073
:1014B0000E49A8000E58601CFEF738FF0090A100EE
:1014C00071580198FEF7ABFE0099FEF7A8FE084997
:1014D000FEF7A5FE3946FEF749FE641C0746032CBD
:1014E000E9DB6D1C032DDEDBFEBD00008801002062
:1014F0008D976E3F10B5FFF7D3FF0149086010BD0F
:1015000044000020F8B50020012400F08FF81A4DA7
:10151000A84230D1FF2000F089F8A8422BD1204604
:10152000022500F08BF8154948600968FEF73EFF78
:1015300011D100260024B70028466D1C00F07EF86B
:101540000F49A200C959641C8850032CF4DB761C97
:10155000032EEFDB00E00B2528466D1C00F06EF833
:10156000084C206028466D1C00F068F86060284632
:1015700000F064F8A060F8BD0100AA124400002049
:101580008801002088030020F8B500F05BF800F027
:101590003BF800200124184901F0B2FB174920460E
:1015A0000225096800F052F800260024B70014480C
:1015B000A100C059415828466D1C00F047F8641C32
:1015C000032CF4DB761C032EEFDB0E4C28466D1C3F
:1015D000216800F03BF86E1C2846616800F036F880
:1015E0003046A16800F032F80349FF2001F088FB83
:1015F00000F018F8F8BD00000100AA124400002015
:10160000880100208803002010B50548FEF7F4FF8C
:10161000042803D0FFF720F8012010BD002010BDE2
:10162000007C000810B5FFF717F810BD02498000D4
:101630004018006870470000007C000800B5FFF704
:10164000F5FF00BD10B5FFF735F810BD10B501F07E
:1016500057FB10BD30B52A4C217881424ED007216E
:101660006218203AD27F6254491E0129F8DA2070AC
:1016700024492348FFF706FC7F25002802D0657027
:10168000032030BD1F491E48C91DFFF7FBFB002882
:1016900002D06570042030BD1A4919480E31FFF799
:1016A000F1FB002802D06570012030BD15491448B7
:1016B0001531FFF7E7FB002802D06570052030BD2B
:1016C00010490F481C31FFF7DDFB002802D0657080
:1016D000062030BD0B490A482331FFF7D3FB002811
:1016E00002D06570072030BD064905482A31FFF752
:1016F000C9FB002802D06570082030BD002030BD35
:1017000060000020CE2D0008F8B500F051F8002848
:101710003DD00021214E0124214F224D012810D01F
:10172000214A042820D0032821D0072800DB3C6070
:1017300005281FD0062820D0072829D008282AD01D
:101740001EE0386800280AD034603960FFF71CFFBB
:10175000FFF7D8FE00F0AEF81449086010E000F082
:10176000E5F8FFF797F9F1E71471346008E03460A9
:10177000117105E000F0B6FD01E000F0A5FD286064
:101780003868002803D02868002800D13460F8BDEC
:1017900000F070FAF3E7FFF713FEF0E720000020F7
:1017A0004C000020240000203402002040000020D3
:1017B00070B53748374C0068002864D0364B37483E
:1017C0001A685100490881420BDA9D686D006D0866
:1017D000854206DA5D686D006D08854201DA0020F9
:1017E0002FE02F4DAA4202D89E68AE4206D95E680D
:1017F00076007608864201DA012022E0294EB242C4
:1018000002DC9A68B24206DD5A68520052088242EF
:1018100001DA022015E05A68AA4208D9814206DAA4
:101820009D686D006D08854201DA032009E0B2422F
:1018300008DD814206DA996849004908814201DAE7
:101840000420206000F036F806CC083C914200D01D
:10185000E060E268801A144A90420FD9002904D14E
:10186000124A904201D90C2005E0114A904204D955
:101870007F2903D0FF20A06000E0A1606160A06824
:10188000FFF7E8FE70BD7F20A0606060002070BDA3
:10189000000000205000002004030020CDCC4C3E6E
:1018A000333333BF3333333FA086010060AE0A00C9
:1018B00020A1070070B50D48426980690C4C616831
:1018C000884201D2091A01E0121A5118606020689A
:1018D0000D1806212846FEF723FC06214143691A0C
:1018E0002160A1680818A06070BD000000E000E061
:1018F000CC0100201CB5232001214004FEF764FF29
:1019000001206946087100208871C8710320487160
:1019100004200924E40600902046FEF7ECFE08218E
:10192000009169462046FEF7E6FE1CBDF0B591B079
:10193000FFF7C0FF0F9005460B900A900020810032
:10194000574B0CAA5B58401C53500328F7DB8CE024
:101950000A980A95281A099001D1012009900622B7
:101960006946432000F0B4F800980199000240183D
:1019700000B2FEF7DBFC07900298039900024018C2
:1019800000B2FEF7D3FC06900498059900024018B7
:1019900000B2FEF7CBFC434E0890307800F070F9AF
:1019A00020464149FEF7BCFB4048814201D9012154
:1019B00000E000213068C207D20F914201D0401CE4
:1019C0003060384801780907090F00260160B4002B
:1019D0000CAF06A839590059FEF7F2FC04D2385969
:1019E0003349FEF7C3FB385106A839590059FEF7B1
:1019F000DDFC04D238592E49FEF709FC3851E019B4
:101A00002C4900F0B5F938592B4940004008FEF741
:101A1000ADFB014606AF385940004008FEF7D0FC48
:101A200006D2FFF747FF0B901E48012101600BE033
:101A30000998FEF786FC214900F0C3F902461848D0
:101A40003959201800F0A7F9761C032EBFDB7D243E
:101A5000E400FFF72FFF401BA04203D20A20FFF74C
:101A6000B4FCF6E7FFF726FF05460B982C1A14483E
:101A7000844205D20F981349281A884200D267E79A
:101A80000B98291A0E48814207D20020044A0146C9
:101A90008300401CD1500328FADB11B0F0BD0000D8
:101AA00094030020CC00002024F40000127A0000EF
:101AB000CDCCCC3D000048440000C8420024F4488E
:101AC00080841E00C0E1E40010B500F05FFF10BD8F
:101AD00013460A4610B50146682000F09AFF01201F
:101AE00010BD10B50146682000F07AFF10BD0A460F
:101AF00010B50146682000F0B3FF10BDF0B5444CAE
:101B0000444D87B021682868FEF781FB2860616832
:101B10006868FEF77CFB00240A27FF436860A60084
:101B2000A8593946FEF7F6FB641CA851032CF6DBD6
:101B300039480024006804AF00903848A600805956
:101B40000099FEF76CFB641CB851032CF5DB344E96
:101B5000049834682146FEF762FBB168FEF75BFB30
:101B6000019001990498FEF75AFB2146FEF7FEFA10
:101B7000074601990598FEF752FB7168FEF7F6FAE1
:101B8000044621460598FEF74AFB0199FEF743FB00
:101B9000B06021460698FEF742FB3946FEF73BFB54
:101BA0003060069A01461046FEF739FB2146FEF7E3
:101BB000DDFA70601748FFF717F91A491A4A4118F9
:101BC000914222D27F22D205014600241046FEF720
:101BD00063FB0090A700E959FEF721FB641CE85164
:101BE000032C01DA0098F5E70B483F21090600684D
:101BF00000F0F9F807460024A000295880193A4659
:101C000000F0C9F8641C032CF6DB07B0F0BD00003F
:101C100088030020700300203C0000207C0300208B
:101C2000E4000020CCCCCCC032337300F8B50025E2
:101C30000D4F00F039FE0024A6000A21B859C9430F
:101C4000FEF768FB01460948094A301800F0A3F87E
:101C5000641C032CF0DB7D20C000FFF7B6FB6D1C7D
:101C6000642DE6DBF8BD000070030020E4000020D6
:101C70009A99593F10B50120FFF7D0F810BD000028
:101C800070B50646FFF716FE194C21692061451A0A
:101C90003046FEF756FB1749FEF7C1FA064601210A
:101CA000204689070C3000F063F82846FEF749FB10
:101CB000054630466168FEF7AAFA2946FEF7AFFAF4
:101CC0000D49FEF7ACFAE168FEF750FA0B49E06007
:101CD000884205DDFF2000F039F87F20C00503E0D1
:101CE000FF2000F021F800206060002070BD00009F
:101CF000B80000208988883D6F12833A48E1FA3E97
:101D000070B50D460446FFF7D5FD2146FEF708FAEB
:101D10006C432009814203D90F2000F017F870BDF1
:101D20000F2000F001F870BD70B50446064DC007E5
:101D300003D004212846FEF718FDA00703D508218B
:101D40002846FEF712FD70BD0000004870B504463D
:101D5000064DC00703D004212846FEF704FDA00766
:101D600003D508212846FEF7FEFC70BD00000048A0
:101D700070B504460120C0070D4645400E46206858
:101D8000FEF71EFB00D2266028462168FEF718FBEE
:101D900000D2256070BD70B505460C467F20164602
:101DA0001146C005FEF733FA2146FEF738FA04461D
:101DB00031462868FEF733FA2146FEF7D7F9286046
:101DC00070BD10B5FEF768FA7F24E4052146FEF7E2
:101DD00022FAA04201DD204610BD0121C907884238
:101DE000FAD9002010BD10B5FEF719FA7F24E405DA
:101DF0002146FEF710FAA04201DD204610BD012168
:101E0000C9078842FAD9002010BD000070B50C0047
:101E1000054601D1FEF752FD0549A00044180548CA
:101E2000294602682046FFF7B6FF206870BD000013
:101E3000BC030020140100201CB57D20C000FFF76A
:101E4000C4FAFFF757FD00F02BFE00F031FFCC483D
:101E5000FFF7BBFAFFF738FE00F03EFB0021084613
:101E600000F06AFB0021012000F066FB0021032046
:101E700000F062FB0021022000F05EFB00F0E8FCB5
:101E800000F0D6FC00282DD0FEF736FEBD4801211B
:101E90008173017100F0C6FBBB4D00240020FEF7EA
:101EA000A1FE2968FEF762F928607D20C000FFF7D7
:101EB0008CFA641C402CF1DB0521C9432868FEF72D
:101EC00029FA2860FFF732FD00F0AAFBFFF7AEFE0B
:101ED000FFF710FBFFF716FBAC480068002803D0A3
:101EE000072021E004201FE0FFF7E4FC6863FFF710
:101EF000E1FCA54C0546606B281AFEF722FA206328
:101F0000002802DC7F20C0052063A149FEF787F985
:101F1000A0492063884201DD062005E09B486563F7
:101F20000068142802DD0820FFF75AFA00F0BCFC14
:101F3000FFF784F8FFF7E2FD0020FEF753FE924C16
:101F4000A168FEF76CF906460120FEF74BFE01463C
:101F5000914F20463A460830FFF71DFF8F483A461A
:101F6000016820460C30FFF716FF20468C4A2030CF
:101F70002168FFF710FF3A4631462046FFF70BFF76
:101F80000121C943206AFEF7C5F906468549206844
:101F9000FEF745F93146FEF73AF90090E4688248C9
:101FA000844255DD784F786A0646FEF7BFF97E49D0
:101FB000FEF735F92146FEF732F90099FEF7D6F81B
:101FC0007049B400703108510646F86A002808D0FC
:101FD000002030398200401C8E500C28FADB002093
:101FE000F8626848714910300059FEF718F90190FD
:101FF0006448403001593046FEF709F90199FEF76F
:10200000B5F8604940310E51303908510146FEF7AC
:1020100006F95C4E0146A036A019654AFFF7BBFEE3
:10202000786A401C78620C2812DB002078623068E5
:1020300000240190A700F0590199FEF7B7F904D2E6
:10204000F05901905048611C8162641C0C2CF1DB3A
:102050004D4F3869002800D053485649FEF786F89E
:102060000646B86AFEF762F94F4C2146FEF7D7F8EC
:10207000F968FEF7D4F80099FEF778F83146FEF7D4
:1020800095F903D34C493868884201DA012000E011
:1020900000203861B86AFEF749F92146FEF7BFF81B
:1020A000F968FEF7BCF80099FEF760F878604348DD
:1020B0000068002801D0FFF727FB3869002801D00D
:1020C000082108E03E480068002806D03D48006826
:1020D000002804D00F213C4818E00C2115E02948C5
:1020E000867B7869002814D0F869002802D1FFF7B0
:1020F000E1FBF861FFF7DEFBF969411A32488142E2
:1021000002D900207861F86108211D48FFF7F8FD29
:102110002BE0B86900281FD0FFF7CCFB0446F86914
:10212000002809D1FC61002E03D0FF20FFF7FCFD41
:1021300002E0FF20FFF70AFEF869211A22488142D7
:1021400001D8F86904E0B869401EB8610020F86160
:102150001E49201A884208D9002E03D0FF20FFF71D
:10216000F5FD02E0FF20FFF7DFFDFEF79DFE7D2479
:10217000E400FFF79FFB401BA042FAD3B7E6000044
:10218000A0860100340200200C0000209C010020E9
:10219000BD3786350AD7A33C492E7F3F0800002073
:1021A00029EA7F3F0000A03FCDCCCC3D42F27C3FEE
:1021B00067B17F3F00006040CDCC2C400000002084
:1021C0006C0000207800002020A10700E0930400AC
:1021D00030B54B00002A01D0012100E000210B4363
:1021E00099B200230C461A464B40521C0909D2B240
:1021F000032AF9D31907090F22010A4393B20021D8
:1022000001220D4C82401804084609D50C2568436C
:10221000255815432550001945681543456004E0CD
:102220000C2568432558154325505804491C030CB8
:10223000C9B21029E7D330BD4C04002010B50649BF
:102240000868002807D000200860091D08710920CF
:10225000C006FEF750FA10BDC001002070B503465D
:102260008C00044D044A60191946FFF794FD285963
:1022700070BD0000F40100203333333F70B50446D5
:102280007F20C005844201DD044604E00120C00730
:10229000844200D9002409492046FDF7C0FF0546C5
:1022A00021460846FDF7BBFF0549FDF7B8FF294663
:1022B000FDF75CFF0349FDF759FF70BD7593583F6B
:1022C0007593183E0AD7A33B05490868022804D035
:1022D00001DA02200860401C70470020FAE7000085
:1022E000480100200C494868002804D0012807D084
:1022F00002280AD10BE0084828308860012003E05A
:1023000005483430886002204860401C704702480D
:102310001C3088600020F7E74801002010B506490E
:10232000087A401C8007800F88602831095C2520CE
:1023300000F03CFD10BD00006800002010B54168B1
:1023400000788007800DFF38FF3802380818FDF745
:10235000EDFF0821C943FDF7DDFF10BDF1B54D4884
:1023600086B0016806984C4F4C4E8400002904D07A
:1023700038594B49FDF753FF38514A480025015958
:1023800045480C300059FEF711F803D130590028A8
:1023900000DD0125434801210059C90748403E4955
:1023A0000C310959FEF702F804D131590120C00758
:1023B000814227D8002D25D13748022118300059F5
:1023C0000090FDF7A7FF34493C310959FDF7CEFED7
:1023D00035592946FDF7CAFE3349FDF720FF334939
:1023E0000959FDF71CFF32490968FDF718FF3959F3
:1023F000FDF7BCFE284938513C3100980851084689
:102400002438055127480C300159E019FFF7B0FC7A
:1024100026480C3801593059FDF701FF1E4E395935
:102420000C36FDF7A3FE3051049020480C300059C3
:102430000390002826DD06983746C5001837E819AE
:10244000019000214068C943FDF764FF02901948DC
:1024500000210059C9430090FDF75CFF0299FDF788
:10246000D6FE0399FDF7DBFE104928398969FDF78F
:10247000D6FE0499FDF7CFFE30510198795941609D
:102480000098785107480159A019FFF771FC30599D
:1024900007B0F0BD00000020EC030020D8010020B0
:1024A00048E17A3F082E00087EAA2A3E70010020EB
:1024B0003C0000207C03002010B50448016804485B
:1024C000FDF7EAFE0349886110BD00003C000020D2
:1024D00017B7513B480100207CB5012069460871BF
:1024E00000248C71CC7103204871022000900F48A9
:1024F000FEF701F910200925ED06009069462846EF
:10250000FEF7F9F84021009169462846FEF7F3F8F6
:102510008021009169462846FEF7EDF8FFF7CAF9D9
:10252000034941180348046041607CBD0004004831
:102530006079FEFFA0010020F8B50A460646032890
:1025400030D80120C007824201D9002203E02B4885
:10255000824200DD02462A491046FDF760FEFDF783
:1025600010FF703087B227480068002800D000278D
:102570002548264D00680024002818D068680028E7
:1025800011D0FFF797F96968401A214988420FD99D
:102590002049022008812048102101814021018129
:1025A00080210181F8BDFFF785F9686000E06C606B
:1025B000002239463046FFF70BFE032EF2D172B6E9
:1025C000FEF792FB62B6BFF36F8F72B6FEF7ACFBFD
:1025D00062B6BFF36F8F72B6FEF7C6FB62B6BFF38B
:1025E0006F8F72B6FEF7E0FB62B600200B498200E7
:1025F000401CC0B28C503028F9D3F8BD77BE7F3F65
:102600000020F2440000002078000020A0010020FB
:1026100040420F0020040048200000484C040020E5
:102620007047000010B52648012181730022C27353
:1026300001710221234800F051FB6420FEF7C5FE22
:1026400020480621483000F049FB0021012000F01D
:10265000ADFB0121022000F0A9FB3921062000F08A
:10266000A5FB0F21112000F0A1FB0021042000F0A8
:102670009DFB0321084600F099FBE22000F050FB8F
:102680000021052000F092FB38211D2000F08EFB78
:1026900000F000FAFD2000F041FA002000F03EFAC0
:1026A00000F0F2F98F21002000F080FB0F2000F0F5
:1026B00058FBC62802D00320FEF792FE10BD000092
:1026C0003402002068000020012040020921C906D0
:1026D000886102490120886070470000AC01002039
:1026E000012040020921C906886103490881034984
:1026F000002088607047000020000048AC010020E6
:102700000120034940020881024900208860704787
:1027100020000048AC01002010B5074C20680028BC
:1027200001D100F077F8012080020921C9068861F3
:102730000120606010BD0000AC01002010B5064C07
:102740002068002801D100F065F8012003498002CB
:1027500008810020606010BDAC010020200000480E
:1027600070B590B000206C4681006050401C0F286E
:10277000FADB852000902248224D06682248019607
:1027800029460068FDF74BFDFDF7E2FD0104C0B2EC
:10279000090E049003911D4829460068FDF73FFD8E
:1027A000FDF7D6FD0104090EC0B2194D0591069042
:1027B000286BC10F08184010FF2800DDFF2007908C
:1027C000002E03D0039808210843039000210846F7
:1027D0008200A258401C51180E28F9DBE1200E910E
:1027E00000F09EFA8221002000F0E0FA0F216846F6
:1027F00000F0C8FAFFF75EF8686310B070BD000023
:102800001C0000200000C8420C0000201000002026
:102810006800002010B50549012008600C310871DE
:102820000920C006FDF767FF10BD0000AC010020C5
:1028300010B57520FFF755F9682807D0982805D0FE
:102840007D2803D0722801D0002010BD012010BDCA
:1028500010B580216B20FFF74AF91248FEF7B5FD4D
:1028600001216B20FFF743F97520FFF73AF968283B
:1028700001D0012400E000246420FEF7A6FD182109
:102880001C20FFF734F9002C03D005211D20FFF791
:102890002EF918211B20FFF72AF903211A20FFF730
:1028A00026F910BD409C0000F0B593B00E22694699
:1028B0003B20FFF70DF9029803990002401800B27F
:1028C000FDF734FD2E4C206000980199000240185D
:1028D00000B24042FDF72AFD6060049805990002AD
:1028E000401800B2FDF722FDA06008980999000287
:1028F000401800B2FDF71AFD11900A980B990002DA
:10290000401800B2FDF712FD10900C980D990002CE
:10291000401800B2FDF70AFD129024342168109887
:10292000FDF775FC109061681198FDF770FC11902F
:10293000A1681298FDF76BFC12900120109AC00755
:1029400011994240109111464140119112990C4F3A
:102950004140002410AE0C371291A500705909496E
:10296000FDF75DFC0849FDF75AFC70512146FFF761
:102970004DFA641C7851032CEFDB13B0F0BD00005E
:102980007003002000007A3D35FA8E3CFEB501262A
:10299000B60201246846009604718471C47103254F
:1029A00009274571FF0669463846FDF7A4FE600217
:1029B000009069463846FDF79EFE084800210660F3
:1029C00001718471C47145710C384160046081608B
:1029D000FFF7A2FEFFF778FEFEBD0000B801002061
:1029E00070B50D460446FEF72FF860000446FEF76A
:1029F00007F82846FEF704F8FDF7F4FF601CFDF722
:102A0000FFFF0120FDF7B4FFC4B2FEF72FF8204608
:102A100070BDFFB581B01D46164607460024FEF77F
:102A200013F878000746FDF7EBFF0298FDF7E8FF83
:102A3000FDF7D8FF781CFDF7E3FF6D1E05E00020D1
:102A4000FDF796FFA1007050641CAC42F7DB01203B
:102A5000FDF78EFFA1007050FEF708F805B0F0BD3D
:102A600070B515460E460446FDF7EEFF6000FDF713
:102A7000C7FF3046FDF7C4FF2846FDF7C1FFC4B2CB
:102A8000FDF7F4FF204670BD0149012088617047C1
:102A900000140048014901200881704720140048B3
:102AA000FEB501246846047100258571C4710326B2
:102AB000467102200B4F009069463846FDF71BFE19
:102AC000694638460094FDF716FE07480460057114
:102AD0008571C471467101460920C006FDF70BFEE1
:102AE000BC61FEBD00140048C401002070B4002089
:102AF00007210223074C0925074EED06A36142007A
:102B0000288A3381C007C00F1043491EF6D570BC18
:102B1000704700000014004820140048F8B504462F
:102B20000F4809260168F6060125002906D105602F
:102B30000C48057101463046FDF7DDFD07210A4BC3
:102B40000A4F022022460A41D20701D0B56100E0B7
:102B50001D81B861064A1081491EF3D5F8BD0000F9
:102B6000C0010020C40100202000004800140048DB
:102B700020140048F8B5474D044601682868FDF761
:102B800015FC04D161686868FDF710FC55D0206819
:102B900028606068404E686031466068FDF73FFB22
:102BA0003E4F3946FDF73BFB054631462068FDF7B1
:102BB00036FB3946FDF733FB0646FEF73DFC354C48
:102BC000083420602846FEF737FC60602846FEF790
:102BD00029FC05463046FEF725FC2946FDF71FFB7C
:102BE0000646A06060680146FDF719FB05462068AF
:102BF0000146FDF714FB2946FDF7B8FA28490546BA
:102C000088420FDD31460846FDF709FB7F21C905E3
:102C1000FDF701FB01462846FDF73EFBFDF7AAFD47
:102C2000054600E01F4D20682946FDF7F8FA2060B0
:102C300029466068FDF7F3FA6060164C1A4E0834B6
:102C4000A068009070680099FDF7E9FAB76805463A
:102C500061683846FDF7E3FA2946FDF7D8FA134DC7
:102C6000686030680099FDF7DAFA06463846216850
:102C7000FDF7D5FA3146FDF7CAFA7F24E40528604E
:102C800021462846FFF774F82146281DFFF770F803
:102C9000F8BD0000D000002000008C4235FA8E3CC8
:102CA0006F12833AF4FD343FE4000020A0030020BB
:102CB00010B50848064941610749CA690323120251
:102CC000120A44042243CA6100218161036110BDDC
:102CD0007F8D5B0000E000E004ED00E070B50D4684
:102CE0000646FFF7D7FE002404E0305DFFF716FF2D
:102CF000641CE4B2AC42F8D3FFF7C6FE70BD00001E
:102D0000064A10B580008018FDF7AEFC042804D0F8
:102D1000FDF7A2FC0520FEF763FB10BD007C000858
:102D200010B50446FFF7B6FE2046FFF7F7FEFFF7A3
:102D3000ABFE002010BD70B50D4606460024FFF71F
:102D4000A9FE6120FFF7EAFEFFF778FA04E0FFF73B
:102D5000CDFEA1007050641CAC42F8DBFFF794FE7E
:102D600070BD10B5C406E40EFFF794FE2046FFF7D1
:102D7000D5FEFFF763FAFFF7B9FE0446FFF784FEBE
:102D8000204610BD70B50D4606460024FFF782FEB2
:102D9000A020FFF7C3FE04E0A0003058FFF7BEFEFE
:102DA000641CAC42F8DBFFF76FFE70BD70B58406A3
:102DB000A40E20200D460443FFF76CFE2046FFF7CB
:102DC000ADFE2846FFF7AAFEFFF75EFE70BD0C01C0
:102DD00000010003000C0200020003000C030003CA
:102DE0000003000C0400030004000C0400030003B3
:102DF000000C0400030002000C04000300010000AA
:102E00002A00000000000000CDCC4C3FCDCC4C3F50
:102E10000000003FCDCC4C3FCDCC4C3F0000003FEC
:102E2000442E000800000020D80100007C040008A7
:102E3000C02E0008D8010020380700003C09000817
:102E40000DDBFFFF32012904812566668640438041
:102E50003FA918891C61C91C032020C1EA394DF122
:102E60000326B80B021F2AA0097B14524185EB41AF
:102E70004149CC09100C011D99287AE0F401241372
:102E80006401400E20D3C18A3F146B963E91C75611
:102E90003E2D2506813D043808B81E853EEC51388C
:102EA000042809CDCCCC3DE17A943E042D295C0F59
:102EB0003E381A70041A7C0401100233010000002D
:04000005080000C926
:00000001FF
