:020000040800F2
:10000000F0080020C9000008EF000008670700089A
:1000100000000000000000000000000000000000E0
:10002000000000000000000000000000F3000008D5
:100030000000000000000000F5000008690800084A
:10004000F9000008F9000008F9000008F9000008AC
:10005000F9000008F9000008F9000008F90000089C
:1000600000000000F9000008F9000008F90000088D
:10007000F9000008F9000008F9000008F90000087C
:10008000F90000080000000000000000F90000086E
:1000900000000000F9000008F9000008F90000085D
:1000A00000000000F900000800000000F90000084E
:1000B0000448854600F0BCF900F048F800480047C5
:1000C000CD240008F00800200C4880F308880C4874
:1000D0000168090E0B4A914205D10B480B4901609A
:1000E0000B480C4901600C4880470C480047FEE76C
:1000F000FEE7FEE7FEE7FEE7FEE70000F00800206F
:10010000040000001F000000181002400100000061
:1001100000000140000000006D080008B100000868
:1001200030B50B46014600202022012409E00D468F
:10013000D5409D4205D31D469540491B2546954017
:1001400040191546521E002DF1DC30BD70B5054C2E
:10015000054D03E0206800198047241DAC42F9D109
:1001600070BD0000CC340008D0340008F8B5024659
:100170004A40D40F42004B0052085B089A4202D218
:100180000246084611464A0023D0C30D4A00DDB29C
:10019000120EAD1A202D35DA49020126490AF6055C
:1001A0008A19002C00D0524220214F1B1146B94021
:1001B0002A411018C20D9A4221D0002C17D0012DCF
:1001C00008DCDA05801AD20F8019D207DBB200F002
:1001D000F5F8F8BDDA05801A012340001B06C018A7
:1001E00080185A428018CA0F1043490007E0490896
:1001F000C2071143DA05801A80194008801800F000
:10020000D5F8F8BD61000122511A001BF7E7012261
:10021000D2075140AAE70122D2075040A6E7024682
:1002200070B54A40D30FDB0740002DD04A002AD0DA
:10023000010E140E000212020919400A520A841813
:10024000E50104465443000A120A2E045043A4193F
:100250004219200CC543AA18120C0125AD03521CEB
:10026000521912047F39240400D0521C104301D4C7
:100270004000491EC2B20C06C0092018401C4008AC
:10028000802A02D003E0002070BD40084000002911
:1002900000DA0020184370BD70B502464A40D50F01
:1002A00040004A00ED0740085208002814D0002AF8
:1002B00012D0C40DD30D41020120C0055202490ADB
:1002C000520AE41A091812187D34914201D3641CB1
:1002D00000E04900002C01DA002070BD00239142AB
:1002E00001D3891A0343400849000028F7D10029A7
:1002F0000AD0914202D10121C90705E0914201D201
:10030000012101E00121C943E005C018401900F0B6
:100310004DF870BD420005D04200120E52428A4292
:1003200001DB00207047C90508187047C217C10FCC
:10033000504010B54018CA079623002100F03EF83F
:1003400010BD10B500229623114600F037F810BDFD
:10035000C20F410040020123400ADB05D207090E0B
:10036000C0187F2901DA00207047962903DC962304
:10037000591AC84001E096398840002AF4D040421A
:10038000704700000122D207002800DB101A002964
:1003900000DB511A814270470122D207002800DB9E
:1003A000101A002900DB511A88427047002904DA2C
:1003B000401C490001D140084000704770B400243F
:1003C000050C05D11024000402D1002921D01124EC
:1003D000050E01D100020834050F01D10001241DD2
:1003E000850F01D18000A41C002801DB4000641CA3
:1003F000002908D020252E1B0D46F540A14000D035
:1004000001212943084301061B1B000ADB1D02D5FD
:10041000002070BC7047DB05181880180029F8DA36
:10042000401C4900F5D170BC4008400070470000F6
:10043000064C0125064E05E0E36807CC2B430C3C37
:1004400098471034B442F7D3FFF736FEAC340008B7
:10045000CC34000870B58C180578401C6B075B0F16
:1004600001D10378401C2A1106D10278401C03E018
:1004700006780E70401C491C5B1EF9D12B0705D471
:100480000023521E0DD40B70491CFAE70378401C60
:10049000CB1A921C03E01D780D70491C5B1C521E88
:1004A000F9D5A142D8D3002070BD836A0B43836283
:1004B000426170470029816801D0012200E00222D8
:1004C0001143816070470029C16802D001221143A5
:1004D00001E049084900C1607047C26802239A439D
:1004E000C260C2680A43C26070478268002101236B
:1004F000DB071A4382600F231B038268491CD20F5B
:10050000D207994201D0002AF7D18168002901DB86
:10051000006C70470020704730B5C268084B8C688B
:100520001A400B680D792343CC686D032C43234399
:100530000C69496923430B431343C36030BD00007A
:1005400003D2FFFF816804221143816070470021BC
:10055000016001718160C16001614161704700000B
:100560000122054992050028886801D0104300E067
:10057000904388607047000000270140002901680F
:1005800002D00122114301E0014A1140016070478D
:10059000FEFF000030B503680C4A0C6A13408A68FD
:1005A0004D6922430C692C4322438C692243CC6958
:1005B00022434C6A22438C6A22431A430260CA686F
:1005C00042600A6882604968C16030BD0F80FFFFE9
:1005D000F0B50B2706463F04384600F067F80428BC
:1005E0000FD1084C206902252843206166612069EB
:1005F000402108432061384600F058F82169A9439A
:100600002161F0BD0020024008490420CA68D207D9
:1006100001D001207047CA68D20601D50220704778
:10062000C9684907FBD5032070470000002002403D
:100630000248016980221143016170470020024095
:10064000F8B5064600200B273F0400900D463846BB
:1006500000F02CF8042815D10B4C20690121084327
:1006600020613580384600F021F8042806D1B61CF8
:10067000290C00963180384600F018F821694908A5
:1006800049002161F8BD00000020024004480169D2
:10069000090603D5034941600349416070470000E2
:1006A0000020024023016745AB89EFCD00B503462A
:1006B000FFF7AAFF02E0FFF7A7FF5B1E012803D0A8
:1006C000002B00D1052000BD002BF4D1FAE7F0B5D6
:1006D0000022032501230C6893401C409C422AD130
:1006E0000C79012C01D0022C12D1876854002E46BF
:1006F000A640B74387604E79A6408468264386604B
:1007000084889C43848084888B7993401C438480B4
:10071000066853002C469C40A64306600E79076885
:100720009E403E430660C668A643C660CC799C40A6
:10073000C3681C43C460521C102ACBD3F0BD4B07C6
:10074000DB0E9A40C90810B589000818016A0F2409
:100750009C40A1430162016A1143016210BD018501
:10076000704781617047052001F02CF970B5FF25B5
:1007700000210446AD05C943FFF7CCFD06460F49ED
:1007800060100C1A21463046FFF749FD2146FFF75D
:1007900046FD2946FFF73FFD2146FFF740FD044691
:1007A00001463046FFF73BFD2146FFF738FD29465D
:1007B000FFF731FD2146FFF732FD70BDDF59375F8E
:1007C000044A0029516901D0014300E0814351618D
:1007D0007047000000100240044A0029D16901D08E
:1007E000014300E08143D1617047000000100240E6
:1007F000044A0029916901D0014300E081439161DD
:1008000070470000001002400CB5002000900190DD
:1008100013491120086013484168416041684160F4
:1008200041687B22D2039143416041680522D20492
:100830001143416001680122120611430160016801
:100840008901FCD54168890889004160416802221C
:100850001143416041680907890F0229FAD10CBD93
:1008600000200240001002407047000010B51448FC
:1008700001680122114301604168124A1140416040
:100880000168114A114001600168012292049143FC
:10089000016041683F22120491434160C16A090925
:1008A0000901C162016BFF22543291430163416B24
:1008B00049084900416300218160FFF7A5FF10BD91
:1008C000001002400CB8FF08FFFFF6FE0029018867
:1008D00002D00122114301E049084900018070471C
:1008E00040300029818803D00122D203114301E066
:1008F0004904490C8180704770B5028C520852003F
:100900000284048C8288038B7025AB439B080D887E
:100910009B001D4302239C438E894B882643104C29
:100920003343A04208D00F4CA04205D00E4CA04249
:1009300002D00E4CA0420DD10824A343CC891C4305
:1009400004239C438B882343094C22400C8A144384
:100950004A8A22438280058389684163038470BD8B
:10096000002C01400040014000440140004801408B
:10097000FFFC000070B5028C10239A430284048CA3
:100980008288038B1A4D2B400D782D062D0C1D43AC
:1009900020239C438B891B051E0C4B8826431B057B
:1009A0001B0C144C3343A04202D0134EB04219D159
:1009B000124E32400E8AB604360C3243A04211D198
:1009C0008024A343CC892405240C1C4340239C434E
:1009D0008B881B051B0C2343094C22404C8AA40422
:1009E000240C22438280058389688163038470BD5F
:1009F000FF8C0000002C014000400140FFFB000084
:100A0000FFF7000030B5028C124B1A400284058CAF
:100A10008288838B104C23400C782406240C1C43C2
:100A20000E4B1D400B7B1B071B0C2B438D782D079A
:100A30002D0C1D430A4B984205D10A4B13400A8ADC
:100A40009205120C1A4382808483896801640584AC
:100A500030BD0000FFEF0000FF8C0000FFDF000052
:100A6000002C0140FFBF000010B50288144B9842D3
:100A700006D00124A407A04202D0124CA04203D108
:100A80007024A2434C8822430F4CA04203D00F4C49
:100A900022400C89224302804A68C2620A88028589
:100AA000984208D00A4A904205D00A4A904202D0A1
:100AB000094A904201D1897A01860121818210BDC3
:100AC000002C01400004004000100040FFFC00002A
:100AD00000400140004401400048014001460348F5
:100AE00088600348C8600846704700000AD7A33CE6
:100AF000249A843DFFB581B01C4617460E0007D0EE
:100B0000019D02E02846B047ED192046641EF9D247
:100B1000019805B0F0BD02E008C8121F08C1002A04
:100B2000FAD170477047002001E001C1121F002A6E
:100B3000FBD1704710B50323102204490448FFF786
:100B4000D9FF04480021016010BD0000DD0A000843
:100B5000300400202001002070B5174D064668685B
:100B60000024002801D102F01DF92868002801D1D5
:100B700002F096F90722012302F0ECF800F01EF8CB
:100B8000002803D0184690402043C4B202F0FEF87B
:100B9000521EF1D5002E02D002F004F901E002F05D
:100BA00013F902F0D7F802F0F1F86868002801D0D4
:100BB00002F00AF9204670BDB40100200920C006E9
:100BC000008A0121890208407047000010B50548DD
:100BD0004068002801D102F0E5F802F0BBF802F00D
:100BE000F3F810BDB401002070B5104E0546B06892
:100BF000012801D102F0CAF8072428462041C00785
:100C000002D002F0CFF801E002F0DEF802F0AEF818
:100C1000641EF2D57068002801D102F0C3F802F01A
:100C200099F802F0B3F8384670BD0000B401002016
:100C300010B5074A9068002801D102F08BF850687F
:100C4000012803D1FFF7BAFF02F0BEF810BD000083
:100C5000B401002010B5084C6068012804D1A068D8
:100C6000002806D102F0B0F8A068002801D102F0F7
:100C700071F802F097F810BDB4010020F8B5154ED8
:100C80004520000637460025183FB06002F052F9B3
:100C90000024A000395880190F4A01F086FB641C1B
:100CA000032CF6DB01F0F8F8FF20F5306D1C8542CF
:100CB000ECDB45210906B068FFF7A9FA074D0024CF
:100CC000B060A0008019294601F05CFB641C032C75
:100CD000F7DBF8BDF00300201F856B3F0000FA43EF
:100CE00070B592B020250320694606950877002448
:100CF000CC77092006A9C006FFF7E9FC01214802CC
:100D0000FFF776FD01210846FFF75AFD2A480690B5
:100D10002A4807900220099080200B9040000C90F8
:100D2000089480000E950D900A94C000244D0F90F9
:100D300006A910942846FFF72DFC1F4E0221403EC5
:100D40003046FFF7CAFB01213046FFF7BCFB68467F
:100D5000FFF7FDFB0120694600940871042005900F
:100D6000029404943046FFF7D7FB0121072249047F
:100D70003046FFF79AFB072220213046FFF795FB0C
:100D80000120FFF7EDFB3046FFF7AFFB01213046B6
:100D9000FFF790FB3046FFF7D5FB01212846FFF710
:100DA000EDFB08480088FFF7CCFA0749FFF737FA50
:100DB0000249486012B070BD40240140A8010020E3
:100DC00008000240BAF7FF1F62DB963F10B50B49DF
:100DD000002803D0012808D0002010BD0888FFF7A4
:100DE000B0FA0749FFF71BFA10BD4888FFF7A9FAC8
:100DF000014602484068FFF74FFA10BDA8010020E5
:100E00003FC8B23AF8B5840013481349183007595F
:100E100009683846FFF703FA0F4D06461035284695
:100E2000103001593846FFF7F2F9294608390968A8
:100E3000FFF7F5F909490968FFF7F1F93146FFF7BE
:100E400095F928512846103007516019044901F0DE
:100E500099FA2859F8BD00002801002068010020F7
:100E60000000B443F8B505460C46480000D1294CB3
:100E700001210026C9078D4203D94C404D408126EF
:100E8000F605002C09DC204648402C460546012189
:100E900089073046FFF76AF9064621462846FFF7DC
:100EA0007BFA10D821462846FFF7B1F907462146BC
:100EB0002846FFF75BF904467F213D46C9053046C9
:100EC000FFF754F9064621462846FFF7E5F90446A0
:100ED0001149FFF7A4F91149FFF748F92146FFF737
:100EE0009EF90F49FFF742F92146FFF798F90446AA
:100EF0000C493046FFF793F92146FFF737F90A49C5
:100F0000884202DD0949FFF782F90949FFF787F9AD
:100F1000F8BD0000567C0A2A4BC887BD7EAE36BE9F
:100F200042DA833FDB0F493FDB0F4940DB0FC9400B
:100F3000E12E654270B5184C606A002804D0002587
:100F4000012809D0656270BD0120E06001F04EFF0C
:100F5000606A401C606270BD172002F048FAC0064B
:100F600008D58F21002002F067FA6562E56001F084
:100F7000E1FC70BD00F090FF616B401A07498842A8
:100F8000F7D9E12002F012FA8F21002002F054FA82
:100F90006562E56070BD000074000020102700004D
:100FA00070B5002506462C46A00030580146FFF7D4
:100FB00036F92946FFF7DAF8641CE4B20546032C3B
:100FC000F2D3FFF7D3FB01467F20C005FFF764F99A
:100FD00070BD0000F8B5164F0C227968134E5143CE
:100FE000144A8A1839688C001159002802D0124E10
:100FF000491C00E0491E1151BD6831462859FFF7D0
:101000000EF928513C68002C04D131466868FFF77E
:1010100006F9686078680C21484306494018A10029
:101020004058002800DA4042F8BD00002EBA683F60
:101030005001002060040020CDCC8C3F30B5002250
:1010400007239C1A6418203C855CE47FA54201D0EC
:10105000002030BD521C072AF3DB012030BD000008
:10106000FEB5072002F0C3F90007400F002507284E
:1010700001D0022000E028460126584C002859D013
:10108000606800281DD000F007FF07460F21544874
:1010900002F097F900F004FC00284BD0E06A401CF5
:1010A000E062E069002801D0FFF744FF6561A561B7
:1010B000A068A763E76325616064E068002837D013
:1010C0003BE00F21464802F07CF9454B1868A42804
:1010D00001D0A3282ED1A32802D14248E661206284
:1010E0003E4F187E28373870187F7870188CB8708B
:1010F000988CF8703C486A4603C800900191012022
:101100008100595C1154401C0628F9DB0621104669
:1011100002F02AF93020694608700621684602F07C
:1011200023F9A068395C252002F086F9666001E0A9
:1011300001F000FCE068002801D0FFF7FBFE00F0A2
:10114000ABFE0746A06B391A206A82007D20C000E2
:10115000101881420BD96068002808D0A763A069E5
:10116000002801D1606CA06001F0E4FBA661E16899
:10117000A069084319D160690090052815D26068FC
:10118000002812D0A06B7D21381AC90088420CD9E2
:10119000216AFEF7C5FF01460098401C814204D336
:1011A00001F0C8FB6069401C6061E06B381A0F4FAA
:1011B000B84205D90E482661056045608560C56066
:1011C00000F06AFE216C401AB84205D9E06AE56277
:1011D000206300F061FE2064FEBD0000740000206A
:1011E0009C030020881300008C34000840420F004C
:1011F0006C030020F0B57F2089B0C0050190FA484B
:10120000807B002802D13F20000601900024264662
:10121000F648A50040590199FFF701F8F44F420044
:10122000F449520878518A4201DC7E510FE00122D4
:10123000D207904204D87F22D2050023009203E017
:10124000ED4A0023ED49009201F00AFB7851641C3D
:10125000032CDDDB01F046FCE348E94F0078002871
:1012600003D0E8480068002823D0E14CE649206814
:10127000FEF7D5FFE549FEF7D2FF3968FEF7C7FF55
:1012800025460C3D2860E0496068FEF7C8FFDF494D
:10129000FEF7C5FF7968FEF7BAFF6860DC49A06811
:1012A000FEF7BDFFD949FEF7BAFFB968FEF7AFFFF9
:1012B000A860002001F05EFB012001F05BFB022032
:1012C00001F058FBC848807900280ED0C748D149A2
:1012D000C068FEF7A4FFD049FEF748FF0446CF4898
:1012E000CF4D0068002805D101E00024F7E7CD4884
:1012F000844223DA6868002807D000F0CDFD6968D1
:10130000401AC949884200D96E600024E0B2002129
:1013100001F072FC641C032CF8DDC44CC04822466A
:101320000021083001F041F8BD48224600210C3070
:1013300001F03BF801206E612860E1E0B84D00202B
:10134000286000F0A9FD6860B9480068002801D055
:10135000B848C468B84D20462E683146FEF757FF9E
:10136000059069680491FEF752FFAD682946FEF7C3
:10137000FDFE039031462046FEF7F8FE0446049930
:10138000FEF745FF2946FEF742FF019004990598B4
:10139000FEF7ECFE2946FEF73AFF0290204604993C
:1013A000FEF7E4FE2946FEF7E1FE00246E460090BB
:1013B000A5007059214601F081FA641C7051032C7C
:1013C000F6DD00200490974800240590A500705990
:1013D0000499FEF7E1FF01D2705904907059059904
:1013E000FEF7D0FF01D270590590641C042CEDDB90
:1013F0007F21C9050498FEF70AFF3F2109068842AC
:1014000000DD0846864CA168FEF7C6FF04D28B4972
:10141000A068FEF7ABFE03E07649A068FEF7F7FE92
:101420003F21804D0906A060884202DC8449884241
:1014300000D9A1607A4801218068C907884200D993
:1014400080488149FEF7EBFE00280DDD2946FEF7B6
:101450008DFE00240490A50070590499FEF7D7FE74
:10146000641C7051042CF6DB00252C46A00004906F
:1014700030582946FEF786FF01D204983558641C7F
:10148000042CF3DB7148854201D9054603E00120B5
:10149000C00785420BD90024A10004917058294649
:1014A000FEF7B5FE0499641C7050042CF4DB002098
:1014B0005B4904464861A500705901F00FFA0146E6
:1014C000E0B201F099FB70590121C907884202D9A5
:1014D0000020705104E07F21C905884200DD715170
:1014E00071594F4D6869FEF741FE641C6861032C19
:1014F000E1DD01212C46C9436069FEF70BFF606105
:101500003948007800286ED03E48006800286AD12B
:101510000021374801F074FE354E3D49B068FEF7B2
:101520007EFE3A49FEF77BFE0546494C2946606837
:10153000FEF775FE009001212068C9074840294642
:10154000FEF76DFE0190A06829460446FEF767FE8F
:10155000029040480490404806902E48059022484A
:101560003E49027AC079002A7ED0002815D003C9EE
:1015700040004C006408400805462146FEF70CFF79
:1015800000D82C4620460699FEF7FCFE6ED8204671
:101590000699FEF781FE04466AE00120C0078442F6
:1015A00013D919493068FEF73AFE184D2946FEF75F
:1015B00036FE3968FEF72BFE0D4C13490C3C2060BB
:1015C0007068FEF72CFE2946A4E0254801682548EE
:1015D00001600020FFF716FC0099FEF7C7FD39688F
:1015E000FEF715FE8FE02BE19C0200206C0300202B
:1015F0002C0200200AD7233C000080BF0AD723BC5E
:10160000E4030020FC0000200000574435FA8E3C23
:101610000000FA433333733FCDCC4C3D84000020AF
:10162000000000206F12833A40420F00EC51383F17
:1016300004010020200400209C0400200AD7A33BC2
:10164000CDCCCCBD17B7D1B8CDCCCC3DCDCC4CBEDC
:10165000F00000209A99993E00005C42140400209A
:1016600008040020400100205CE0FFE77F24E4053F
:101670003068059945006D082846FEF783FE05D8B9
:1016800028460599FEF708FE054601E07F25ED0591
:1016900021460498FEF7C3FD044678482946FEF724
:1016A000BEFD2146FEF762FD0546754881680120B2
:1016B000C007814200D974E772480168724801602E
:1016C00072493068FEF7ABFD7149FEF7A8FD396835
:1016D000FEF79DFD2946FEF7A2FD04467F20294620
:1016E000C005FEF794FD05460020FFF78BFB00992F
:1016F000FEF73CFD3968FEF78AFD2946FEF78FFDAF
:101700002146FEF733FD634C604920607068FEF7A8
:1017100086FD5F49FEF783FD7968FEF778FD60601E
:10172000B96888E000287DD07F200025C005049995
:10173000FEF76DFD0790584903C94000490049086C
:1017400040080C460646FEF727FE00D834462046E1
:101750000699FEF717FE04D820460699FEF79CFD71
:1017600001E07F20C0054B4FAC000C370390385987
:101770000599460076083046FEF704FE05D8304647
:101780000599FEF789FD064601E07F26F6050399D7
:101790000498FEF744FD039031460798FEF73FFD9D
:1017A0000399FEF7E3FC0390354881680120C007E8
:1017B00081420DD938593549FEF731FD3449FEF7DC
:1017C0002EFD36490959FEF722FD324908512DE018
:1017D0002C4801592C48015138592C49FEF71FFD5E
:1017E0002B49FEF71CFD2D4F3959FEF710FD0399CB
:1017F000FEF715FD06467F20C0050399FEF707FD9D
:1018000003902846FFF7FEFA69460959FEF7AEFC39
:101810003959FEF7FCFC0399FEF701FD3146FEF74E
:10182000A5FC00E00EE001461A4801516D1C012D97
:1018300081DD1A4881680298FEF7E9FC1549886045
:1018400009B0F0BD134E00250E48AC0001590E48FA
:1018500001512846FFF7D6FA69460959FEF786FC7A
:101860003959FEF7D4FC6D1C3051012DECDDB968FF
:101870000298FEF7CCFCB060E2E700003333333F60
:10188000F000002008040020400100200000574420
:1018900035FA8E3C2002002014040020E4030020CE
:1018A000F8B5384C2068A52869D100210846820087
:1018B000A258401C51180E28F9DBC8B2A16B88420F
:1018C0005DD13048103001F045F82F4D28602D488B
:1018D000183001F03FF868602A48283001F03AF8E3
:1018E000A860208C616A8007800D4018FEF71EFDFD
:1018F0002649FEF794FC264EE8603146286801F040
:10190000ABF928603146686801F0A6F968602149A2
:10191000A86801F0A1F9A860217B1F4D0806C00F3F
:10192000A871A068C206D20FEA718206D20F2A728D
:101930008A06D20F4907EA72C90FA9720107C90FB7
:1019400029706168FA2918D0002169708107C90FD0
:10195000C007A970C00FE8700020104B104C07465C
:1019600001261F54225C295C8A4200D01E54215457
:10197000401C0E28F5DB0120F8BD0121E5E7002021
:10198000F8BD00009C0300206C030020F7FF7F3AA5
:10199000CDCC4C3F9A99193F9C0200208C0300202B
:1019A0007C03002010B50020FFF714FB10BD08B524
:1019B000810040180090411E009101D30846FAE7CB
:1019C00008BD000006460024E0B2002101F014F931
:1019D000641C032CF8DD0B4DAF0000240CE0FF204D
:1019E00000F0BEFC2846FFF7E2FFFF2000F0A6FC57
:1019F0002846FFF7DCFF641CB442F0DB3846FFF7F3
:101A0000D6FFEAE7400D030010B50349FEF7AEFB31
:101A100000F004F810BD0000DB0FC93F70B50446AC
:101A2000134E144D03E03146FEF7A0FB0446AC42D2
:101A3000F9D8114DAC4204DD3146FEF7E8FB04460F
:101A4000F8E70120C0070D490D4D8442204605D915
:101A5000FEF7E5FB2946FEF789FB04E0FEF7DFFB16
:101A60002946FEF7D8FB2146FEF7D9FB70BD0000E2
:101A7000DB0FC940DB0F49C0DB0F49407B81CF3E04
:101A800083F9A23FFEB500273D460024681CFEF7FF
:101A90004DFC01900E49A8000E58601CFEF746FC54
:101AA0000090A10071580198FEF7B9FB0099FEF76C
:101AB000B6FB0849FEF7B3FB3946FEF757FB641C3B
:101AC0000746032CE9DB6D1C032DDEDBFEBD0000A9
:101AD0009C0100208D976E3F10B5FFF7D3FF0149A1
:101AE000086010BD50000020F8B50020012400F06F
:101AF0008FF81A4DA84230D1FF2000F089F8A84293
:101B00002BD12046022500F08BF815494860096862
:101B1000FEF738FC11D100260024B70028466D1CC2
:101B200000F07EF80F49A200C959641C8850032CAC
:101B3000F4DB761C032EEFDB00E00B2528466D1C42
:101B400000F06EF8084C206028466D1C00F068F824
:101B50006060284600F064F8A060F8BD0100AA1299
:101B6000500000209C010020F0030020F8B500F098
:101B70005BF800F03BF800200124184901F006FC56
:101B8000174920460225096800F052F80026002473
:101B9000B7001448A100C059415828466D1C00F0F8
:101BA00047F8641C032CF4DB761C032EEFDB0E4C91
:101BB00028466D1C216800F03BF86E1C28466168C1
:101BC00000F036F83046A16800F032F80349FF20F3
:101BD00001F0DCFB00F018F8F8BD00000100AA12CB
:101BE000500000209C010020F003002010B50548A3
:101BF000FEF7EEFC042803D0FEF71AFD012010BD0D
:101C0000002010BD007C000810B5FEF711FD10BDCE
:101C1000024980004018006870470000007C0008FE
:101C200000B5FFF7F5FF00BD10B5FEF72FFD10BDA5
:101C300010B501F0ABFB10BD30B52A4C21788142C4
:101C40004ED007216218203AD27F6254491E0129E2
:101C5000F8DA207024492348FFF7F0F97F2500289F
:101C600002D06570032030BD1F491E48C91DFFF713
:101C7000E5F9002802D06570042030BD1A491948E2
:101C80000E31FFF7DBF9002802D06570012030BD6E
:101C9000154914481531FFF7D1F9002802D06570B5
:101CA000052030BD10490F481C31FFF7C7F9002847
:101CB00002D06570062030BD0B490A482331FFF77A
:101CC000BDF9002802D06570072030BD06490548DF
:101CD0002A31FFF7B3F9002802D06570082030BD23
:101CE000002030BD6C0000205A340008F8B500F028
:101CF00051F800283DD00021214E0124214F224DD2
:101D0000012810D0214A042820D0032821D00728F8
:101D100000DB3C6005281FD0062820D0072829D0EA
:101D200008282AD01EE0386800280AD034603960BC
:101D3000FFF71CFFFFF7D8FE00F0AEF8144908606B
:101D400010E000F0E5F8FEF799FFF1E71471346058
:101D500008E03460117105E000F0D0FD01E000F012
:101D6000BFFD28603868002803D02868002800D10B
:101D70003460F8BD00F07CFAF3E7FFF713FEF0E7FC
:101D80002C00002058000020300000209C02002081
:101D90004C00002070B53748374C0068002864D0EC
:101DA000364B37481A685100490881420BDA9D6862
:101DB0006D006D08854206DA5D686D006D0885422C
:101DC00001DA00202FE02F4DAA4202D89E68AE42D1
:101DD00006D95E6876007608864201DA012022E0A4
:101DE000294EB24202DC9A68B24206DD5A685200BD
:101DF0005208824201DA022015E05A68AA4208D944
:101E0000814206DA9D686D006D08854201DA032083
:101E100009E0B24208DD814206DA996849004908C2
:101E2000814201DA0420206000F036F806CC083C3C
:101E3000914200D0E060E268801A144A90420FD9C3
:101E4000002904D1124A904201D90C2005E0114A20
:101E5000904204D97F2903D0FF20A06000E0A16058
:101E60006160A068FFF7E8FE70BD7F20A060606041
:101E7000002070BD000000205C0000206C030020EA
:101E8000CDCC4C3E333333BF3333333FA0860100D8
:101E900060AE0A0020A1070070B50D484269806954
:101EA0000C4C6168884201D2091A01E0121A5118DB
:101EB000606020680D1806212846FEF731F90621DA
:101EC0004143691A2160A1680818A06070BD000034
:101ED00000E000E0D40100201CB5232001214004D3
:101EE000FEF76EFC01206946087100208871C871F8
:101EF0000320487104200924E40600902046FEF7E0
:101F0000E6FB0821009169462046FEF7E0FB1CBD78
:101F1000F0B591B0FFF7C0FF0F9005460B900A9007
:101F200000208100574B0CAA5B58401C53500328DB
:101F3000F7DB8CE00A980A95281A099001D1012054
:101F4000099006226946432000F0B4F800980199F0
:101F50000002401800B2FEF7E9F9079002980399D1
:101F60000002401800B2FEF7E1F9069004980599C6
:101F70000002401800B2FEF7D9F9434E08903078BD
:101F800000F088F920464149FEF7CAF840488142EE
:101F900001D9012100E000213068C207D20F91422F
:101FA00001D0401C3060384801780907090F00262D
:101FB0000160B4000CAF06A839590059FEF7ECF9DE
:101FC00004D238593349FEF7D1F8385106A83959A7
:101FD0000059FEF7D7F904D238592E49FEF717F900
:101FE0003851E0192C4900F0CDF938592B494000FF
:101FF0004008FEF7BBF8014606AF385940004008DC
:10200000FEF7CAF906D2FFF747FF0B901E480121E1
:1020100001600BE00998FEF794F9214900F002FAFB
:10202000024618483959201800F0BFF9761C032ED3
:10203000BFDB7D24E400FFF72FFF401BA04203D24B
:102040000A20FFF7B4FCF6E7FFF726FF05460B98DA
:102050002C1A1448844205D20F981349281A884232
:1020600000D267E70B98291A0E48814207D2002058
:10207000044A01468300401CD1500328FADB11B00A
:10208000F0BD0000FC030020D800002024F4000074
:10209000127A0000CDCCCC3D000048440000C8427C
:1020A0000024F44880841E00C0E1E40010B500F074
:1020B000B3FF10BD13460A4610B50146682000F074
:1020C000EEFF012010BD10B50146682000F0CEFFE4
:1020D00010BD0A4610B50146682001F007F810BD92
:1020E000F0B5494C494D87B021682868FEF78FF854
:1020F000286061686868FEF78AF800240A27FF43B1
:102100006860A600A8593946FEF704F9641CA85176
:10211000032CF6DB3E480024006804AF00903D48E5
:10212000A60080590099FEF77AF8641CB851032C78
:10213000F5DB394E049834682146FEF770F8B16833
:10214000FEF769F8019001990498FEF768F82146B6
:10215000FEF70CF8074601990598FEF760F87168DC
:10216000FEF704F8044621460598FEF758F8019951
:10217000FEF751F8B06021460698FEF750F8394650
:10218000FEF749F83060069A01461046FEF747F818
:102190002146FDF7EBFF70601C48FEF701FF1F4969
:1021A0001F4A4118914222D27F22D20501460024C3
:1021B0001046FEF771F80090A700E959FEF72FF8D6
:1021C000641CE851032C01DA0098F5E710483F2120
:1021D0000906006800F038F907460024A0002958D5
:1021E00080193A4600F0E1F8641C032CF6DBB16874
:1021F0003068FEF737FE0B4C2060B1687068FEF760
:1022000031FE606007B0F0BDF0030020D80300206D
:1022100048000020E4030020F0000020CCCCCCC01B
:102220003233730014040020F8B500250D4F00F080
:1022300081FE0024A6000A21B859C943FEF76AF8B6
:1022400001460948094A301800F0AFF8641C032C15
:10225000F0DB7D20C000FFF7AAFB6D1C642DE6DBE0
:10226000F8BD0000D8030020F00000209A99593FE3
:1022700010B50120FEF7AEFE10BD0EB500226B4674
:102280001A805A8001911A819A726946FEF7ECFB16
:102290000EBD000070B50646FFF7FEFD194C216922
:1022A0002061451A3046FEF74CF81749FDF7B7FF95
:1022B00006460121204689070C3000F063F82846C5
:1022C000FEF73FF8054630466168FDF7A0FF294656
:1022D000FDF7A5FF0D49FDF7A2FFE168FDF746FFF9
:1022E0000B49E060884205DDFF2000F039F87F20CF
:1022F000C00503E0FF2000F021F80020606000200E
:1023000070BD0000C40000208988883D6F12833AA8
:1023100048E1FA3E70B50D460446FFF7BDFD214683
:10232000FDF7FEFE6C432009814203D90F2000F027
:1023300017F870BD0F2000F001F870BD70B50446AD
:10234000064DC00703D004212846FEF70AFAA0076D
:1023500003D508212846FEF704FA70BD00000048A6
:1023600070B50446064DC00703D004212846FEF789
:10237000F6F9A00703D508212846FEF7F0F970BD4D
:102380000000004870B504460120C0070D464540D6
:102390000E462068FEF700F800D226602846216825
:1023A000FDF7FAFF00D2256070BD70B505460C46FA
:1023B0007F2016461146C005FDF729FF2146FDF78F
:1023C0002EFF044631462868FDF729FF2146FDF718
:1023D000CDFE286070BD0000F3B5104E104F8C008C
:1023E00083B031593869FDF71AFF019030460C3837
:1023F0000559F8682946FDF712FF0090796903989E
:10240000FDF70DFF0099FDF7B1FE0199FDF7FFFE05
:10241000314635510C39085105B0F0BDCC040020CF
:102420005001002010B5FDF737FF7F24E405214659
:10243000FDF7F1FEA04201DD204610BD0121C907D4
:102440008842FAD9002010BD10B5FDF7E8FE7F24C0
:10245000E4052146FDF7DFFEA04201DD204610BD68
:102460000121C9078842FAD9002010BDF8B5164AE3
:1024700009018C1805462768A1686068FDF776FE9B
:102480000090E168FDF772FE01467F20C005FDF770
:1024900003FF0099FDF7C3FE064639462846FDF7BF
:1024A000B6FE3146FDF7BBFE3946FDF75FFE054639
:1024B0007F203146C005FDF7AAFE0099FDF7AFFE6B
:1024C000256060602846F8BD300400201CB57D20E2
:1024D000C000FFF76CFAFFF7FFFC00F027FE00F0EA
:1024E0002DFFCB48FFF763FAFFF7E0FD00F00AFB92
:1024F0000021084600F080FB0021012000F07CFB59
:102500000021032000F078FB0021022000F074FB82
:1025100000F0E4FC00F0D2FC00282CD0FEF7E0FB39
:10252000BC480121817300F0C5FBBB4D0024002095
:10253000FEF74CFC2968FDF719FE28607D20C000DD
:10254000FFF735FA641C402CF1DB0521C9432868EC
:10255000FDF7E0FE2860FFF7DBFC00F0A9FBFFF7CA
:1025600063FEFFF7B9FAFFF7BFFAAC48006800282E
:1025700003D0072021E004201FE0FFF78DFC6863F3
:10258000FFF78AFCA44C0546606B281AFDF7D9FEBC
:102590002063002802DC7F20C0052063A049FDF7EE
:1025A0003EFEA0492063884201DD062005E09B48ED
:1025B00065630068142802DD0820FFF703FA00F0C5
:1025C000B9FCFEF717FEFFF78BFD0020FEF7FEFBC0
:1025D000914CA168FDF723FE06460120FEF7F6FBAD
:1025E0000146914F20463A460830FFF7DEFE8F48FD
:1025F0003A46016820460C30FFF7D7FE20468C4A49
:1026000020302168FFF7D1FE3A4631462046FFF7D9
:10261000CCFE0121C943206AFDF77CFE06468549B0
:102620002068FDF7FCFD3146FDF7F1FD0090E46800
:102630008148844255DD784F786A0646FDF776FE7C
:102640007D49FDF7ECFD2146FDF7E9FD0099FDF719
:102650008DFD7049B400703108510646F86A0028B3
:1026600008D0002030398200401C8E500C28FADB44
:102670000020F8626748714910300059FDF7CFFD1E
:1026800001906448403001593046FDF7C0FD019982
:10269000FDF76CFD5F4940310E513039085101465C
:1026A000FDF7BDFD5B4E0146A036A019644AFFF759
:1026B0007CFE786A401C78620C2812DB002078626D
:1026C000306800240190A700F0590199FDF75AFEE7
:1026D00004D2F05901905048611C8162641C0C2C9A
:1026E000F1DB4D4F3869002800D053485549FDF7BC
:1026F0003DFD0646B86AFDF719FE4F4C2146FDF731
:102700008EFDF968FDF78BFD0099FDF72FFD314631
:10271000FDF738FE03D34C493868884201DA0120BE
:1027200000E000203861B86AFDF700FE2146FDF7A1
:1027300076FDF968FDF773FD0099FDF717FD7860E8
:1027400042480068002801D0FFF7D0FA3869002815
:1027500001D0082108E03E480068002806D03D4826
:102760000068002804D00F213B4818E00C2115E038
:102770002848867B7869002814D0F869002802D19F
:10278000FFF78AFBF861FFF787FBF969411A3248C6
:10279000814202D900207861F86108211C48FFF7C6
:1027A000B9FD2BE0B86900281FD0FFF775FB044680
:1027B000F869002809D1FC61002E03D0FF20FFF743
:1027C000BDFD02E0FF20FFF7CBFDF869211A22488A
:1027D000814201D8F86904E0B869401EB861002060
:1027E000F8611E49201A884208D9002E03D0FF2024
:1027F000FFF7B6FD02E0FF20FFF7A0FDFEF730FC7B
:102800007D24E400FFF748FB401BA042FAD3B7E663
:10281000A08601009C02002018000020B0010020CA
:10282000BD3786350AD7A33C492E7F3F14000020D0
:1028300029EA7F3F0000A03FCDCCCC3D42F27C3F57
:1028400067B17F3F00006040CDCC2C4000000020ED
:10285000780000208400002020A10700E0930400FD
:10286000FFB581B007460E4610460A9DFDF7CFFC26
:10287000044628460499FDF7CAFC05463146384609
:10288000FDF7C5FC2946FDF7CAFC2146FDF704FD0E
:102890000499FDF76BFC05B0F0BD000010B50649CA
:1028A0000868002807D000200860091D0871092069
:1028B000C006FDF70CFF10BDC801002070B503462F
:1028C0008C00044D044A60191946FFF76EFD285923
:1028D00070BD00003C0200204E09183F7047000008
:1028E00005490868022804D001DA02200860401C6B
:1028F00070470020FAE70000500100200C494868AA
:10290000002804D0012807D002280AD10BE008488B
:1029100028308860012003E00548343088600220B8
:102920004860401C704702481C3088600020F7E770
:102930005001002010B50649087A401C8007800F1E
:1029400088602831095C252000F076FD10BD00006C
:102950007400002010B5416800788007800DFF38B2
:10296000FF3802380818FDF7E1FC0821C943FDF7DC
:10297000D1FC10BDF1B5524882B001680298514EA9
:10298000514F8400002904D030595049FDF747FCCD
:1029900030514F48002501594A4818300059FDF779
:1029A000F1FC03D13859002800DD012548480121F8
:1029B0000059C9074840434918310959FDF7E2FC5D
:1029C00004D139590120C007814227D8002D25D1D3
:1029D0003C480221243000590090FDF79BFC394906
:1029E00030310959FDF7C2FB3D592946FDF7BEFBC1
:1029F0003849FDF714FC38490959FDF710FC3749EF
:102A00000968FDF70CFC3159FDF7B0FB2D49305139
:102A100030310098085108460C3805512C480C30CC
:102A2000015928482018FFF7ADFC2B4818300659EB
:102A300038593146FDF7F3FB27490C390959009104
:102A4000FDF7EDFB1F4D07467F211835C9053046C0
:102A5000FDF7DDFB0099FDF7E2FB21490E593146F8
:102A6000FDF7DDFB3946FDF781FB16490959FDF7F6
:102A70007DFB285118480C300759002F18DD2846D7
:102A80000C3800593146FDF7C2FB3946FDF7C7FB4C
:102A9000114928398969FDF7C2FB29460C390E51C5
:102AA0000299FFF799FC01462859FDF75FFB285171
:102AB000074801596019FFF765FC2859FEBD000061
:102AC00000000020840400202002002048E17A3F1A
:102AD000943400087EAA2A3E780100204800002095
:102AE000E403002010B5044801680448FDF7D4FB56
:102AF0000349886110BD00004800002017B7513B12
:102B000050010020FEB5022569460D710320487171
:102B100000248C71CC7101212846FDF75DFE314FF8
:102B200031483946FFF7A9FB01210E023046FDF777
:102B300053FE39462D4F3846FFF79FFB2C48602146
:102B40000180012141808481068284601020092453
:102B5000E406009069462046FDF7B9FD04221146BF
:102B60002046FDF7ECFD22493846FDF7C5FE402022
:102B7000009069462046FDF7AAFD01220621204665
:102B8000FDF7DDFD1A491848FDF7B6FE80200090DC
:102B900069462046FDF79BFD012207212046FDF7EF
:102BA000CEFD13491048FDF7E5FE124C694620465C
:102BB0000095FDF78CFD012211462046FDF7BFFD73
:102BC0000B490948FDF71EFF01210748FDF77EFE6E
:102BD00001210548FDF784FE01213846FDF776FE08
:102BE000FEBD0000DB0500000004004000200040A6
:102BF000D80400200004004810B50A4604461249D3
:102C00001046FDF70CFBFDF7A3FB002801DA0020BE
:102C100003E00E49884200DD0846002C09D0012C53
:102C20000CD00B49022C0CD0032C01D180B288634C
:102C300010BD074980B24031086010BD80B205491F
:102C400000E080B2486310BD0060BB44DB050000BB
:102C50000004004000200040F8B506467F20C00573
:102C60000C46814201DD044603E010498C4200D944
:102C70000C4621460746FDF7CAFA3146FDF7CFFA62
:102C8000054631460846FDF7CAFA3146FDF7C7FA50
:102C90002146FDF7C4FA2946FDF768FA0090394647
:102CA0006846FFF76FFB0098F8BD0000000080BF8A
:102CB0007047000010B52548012181730021C173C0
:102CC0000221234800F050FB6420FEF770FE2048EC
:102CD0000621483000F048FB0021012000F0ACFB49
:102CE0000121022000F0A8FB3921062000F0A4FBFE
:102CF0000F21112000F0A0FB0021042000F09CFB1C
:102D00000321084600F098FBE22000F04FFB002171
:102D1000052000F091FB38211D2000F08DFB00F014
:102D2000FFF9FD2000F040FA002000F03DFA00F02D
:102D3000F1F98F21002000F07FFB0F2000F057FBFE
:102D4000C62802D00320FEF73DFE10BD9C020020E5
:102D500074000020012040020921C906886102494F
:102D60000120886070470000B4010020012040026B
:102D70000921C90688610349088103490020886048
:102D80007047000020000048B401002001200349E2
:102D900040020881024900208860704720000048F6
:102DA000B401002010B5074C2068002801D100F0C4
:102DB00077F8012080020921C9068861012060603E
:102DC00010BD0000B401002010B5064C206800289A
:102DD00001D100F065F8012003498002088100203C
:102DE000606010BDB40100202000004870B590B0B4
:102DF00000206C4681006050401C0F28FADB8520C3
:102E000000902248224D0668224801962946006813
:102E1000FDF705FAFDF79CFA0104C0B2090E049013
:102E200003911D4829460068FDF7F9F9FDF790FA6E
:102E30000104090EC0B2194D05910690286BC10F0F
:102E400008184010FF2800DDFF200790002E03D057
:102E50000398082108430390002108468200A258E5
:102E6000401C51180E28F9DBE1200E9100F09EFA6B
:102E70008221002000F0E0FA0F21684600F0C8FA35
:102E8000FFF70AF8686310B070BD0000280000204A
:102E90000000C842180000201C0000207400002020
:102EA00010B50549012008600C3108710920C006E1
:102EB000FDF70DFC10BD0000B401002010B5752019
:102EC000FFF701F9682807D0982805D07D2803D09E
:102ED000722801D0002010BD012010BD10B5802146
:102EE0006B20FFF7F6F81248FEF761FD01216B2019
:102EF000FFF7EFF87520FFF7E6F8682801D0012406
:102F000000E000246420FEF752FD18211C20FFF78A
:102F1000E0F8002C03D005211D20FFF7DAF8182176
:102F20001B20FFF7D6F800211A20FFF7D2F810BDBA
:102F3000409C0000F0B593B00E2269463B20FFF79D
:102F4000B9F8029803990002401800B2FDF7EEF9B3
:102F50002E4C2060009801990002401800B24042B7
:102F6000FDF7E4F96060049805990002401800B28A
:102F7000FDF7DCF9A060089809990002401800B23A
:102F8000FDF7D4F911900A980B990002401800B28D
:102F9000FDF7CCF910900C980D990002401800B282
:102FA000FDF7C4F91290243421681098FDF72FF929
:102FB000109061681198FDF72AF91190A168129894
:102FC000FDF725F912900120109AC007119942408F
:102FD000109111464140119112990C4F414000242B
:102FE00010AE0C371291A50070590949FDF717F979
:102FF0000849FDF714F970512146FFF737FA641CB0
:103000007851032CEFDB13B0F0BD0000D803002093
:1030100000007A3D35FA8E3CFEB50126B602012449
:103020006846009604718471C471032509274571AF
:10303000FF0669463846FDF74AFB60020090694684
:103040003846FDF744FB0848002106600171847191
:10305000C47145710C38416004608160FFF7A2FEC5
:10306000FFF778FEFEBD0000C001002070B50D46E0
:103070000446FDF7DDFD60000446FDF7B5FD28467A
:10308000FDF7B2FDFDF7A2FD601CFDF7ADFD0120CF
:10309000FDF762FDC4B2FDF7DDFD204670BDFFB552
:1030A00081B01D46164607460024FDF7C1FD780095
:1030B0000746FDF799FD0298FDF796FDFDF786FDA1
:1030C000781CFDF791FD6D1E05E00020FDF744FD25
:1030D000A1007050641CAC42F7DB0120FDF73CFD01
:1030E000A1007050FDF7B6FD05B0F0BD70B51546F6
:1030F0000E460446FDF79CFD6000FDF775FD304669
:10310000FDF772FD2846FDF76FFDC4B2FDF7A2FD85
:10311000204670BD014901208861704700140048B5
:10312000014901200881704720140048FEB50124A0
:103130006846047100258571C4710326467102201A
:103140000B4F009069463846FDF7C1FA694638468C
:103150000094FDF7BCFA0748046005718571C471DD
:10316000467101460920C006FDF7B1FABC61FEBDFB
:1031700000140048CC01002070B400200721022375
:10318000074C0925074EED06A3614200288A3381CA
:10319000C007C00F1043491EF6D570BC7047000031
:1031A0000014004820140048F8B504460F480926CA
:1031B0000168F6060125002906D105600C48057155
:1031C00001463046FDF783FA07210A4B0A4F0220D9
:1031D00022460A41D20701D0B56100E01D81B861E5
:1031E000064A1081491EF3D5F8BD0000C801002031
:1031F000CC010020200000480014004820140048A2
:10320000F8B5474D044601682868FDF7BBF804D1BE
:1032100061686868FDF7B6F855D020682860606876
:10322000404E686031466068FCF7F9FF3E4F394612
:10323000FCF7F5FF054631462068FCF7F0FF3946FC
:10324000FCF7EDFF0646FEF7E9FB354C083420603D
:103250002846FEF7E3FB60602846FEF7D5FB0546EF
:103260003046FEF7D1FB2946FCF7D9FF0646A060A1
:1032700060680146FCF7D3FF054620680146FCF76D
:10328000CEFF2946FCF772FF2849054688420FDD2C
:1032900031460846FCF7C3FF7F21C905FCF7BBFF99
:1032A00001462846FCF7F8FFFDF760FA054600E006
:1032B0001F4D20682946FCF7B2FF20602946606850
:1032C000FCF7ADFF6060164C1A4E0834A068009001
:1032D00070680099FCF7A3FFB76805466168384637
:1032E000FCF79DFF2946FCF792FF134D686030689C
:1032F0000099FCF794FF064638462168FCF78FFFDB
:103300003146FCF784FF7F24E405286021462846E7
:10331000FFF738F82146281DFFF734F8F8BD000004
:10332000DC00002000008C4235FA8E3C6F12833A9C
:10333000F4FD343FF00000200804002010B50848D8
:10334000064941610749CA6903231202120A44046B
:103350002243CA6100218161036110BD7F8D5B0042
:1033600000E000E004ED00E070B50D460646FFF712
:10337000D7FE002404E0305DFFF716FF641CE4B2C2
:10338000AC42F8D3FFF7C6FE70BD0000064A10B588
:1033900080008018FDF754F9042804D0FDF748F99F
:1033A0000520FEF70FFB10BD007C000810B5044699
:1033B000FFF7B6FE2046FFF7F7FEFFF7ABFE002053
:1033C00010BD70B50D4606460024FFF7A9FE61202A
:1033D000FFF7EAFEFFF762FA04E0FFF7CDFEA10077
:1033E0007050641CAC42F8DBFFF794FE70BD10B562
:1033F000C406E40EFFF794FE2046FFF7D5FEFFF764
:103400004DFAFFF7B9FE0446FFF784FE204610BDD3
:1034100070B50D4606460024FFF782FEA020FFF798
:10342000C3FE04E0A0003058FFF7BEFE641CAC42AF
:10343000F8DBFFF76FFE70BD70B58406A40E202088
:103440000D460443FFF76CFE2046FFF7ADFE28460D
:10345000FFF7AAFEFFF75EFE70BD0C01000100033E
:10346000000C0200020003000C0300030003000C28
:103470000400030004000C0400030003000C04001B
:10348000030002000C040003000100002A000000F9
:10349000000000009A99D93F9A99D93F0000003F57
:1034A0009A99D93F9A99D93F0000003FD03400083B
:1034B00000000020E001000054040008543500081A
:1034C000E001002010070000260B000869D6FFFF6E
:1034D000320129048185CDCCCC3D256666864043EA
:1034E000803FA924891C61C91C032020C1EA394DF1
:1034F000F10326B80B021F2AA0097B14524185EB69
:10350000414149CC09100C01247AE0F00124136CEC
:1035100001400E209ED8893F2173943E52215A3E8D
:103520002D14AE873E0438089A99593FCDCCCC046F
:1035300038086666A63F7B148E04180C48E1FA3EF4
:103540007B146E3F333373182B663F441A78041A8A
:0435500084040138B6
:04000005080000C926
:00000001FF
